:020000040000FA
:100000007010002081010000890100008B010000B8
:1000100000000000000000000000000000000000E0
:100020000000000000000000000000008D01000042
:1000300000000000000000008F010000910100009E
:100040009301000093010000930100009301000060
:100050009301000093010000930100009301000050
:100060009301000093010000930100009301000040
:1000700093010000930100001506000093010000A9
:100080009301000093010000930100009301000020
:100090009301000093010000930100009301000010
:1000A0009301000093010000930100009301000000
:1000B00093010000930100009301000093010000F0
:1000C00000F002F800F04CF812A030C808382418EC
:1000D0002D18AC4201D100F043F80FCCA246AB463C
:1000E0000CA730CF2D1B083F3F197C427F1E544484
:1000F0002D090426F441641EAC4201D300F030F80F
:100100000126334200D0FB1A3343984754465D46DC
:10011000DFE70000A81A0000C81A0000103A02D356
:1001200078C878C1FAD8520701D330C830C101D598
:1001300004680C6070470000704700000023002432
:1001400000250026103A01D378C1FBD8520700D30E
:1001500030C100D50B6070471FB51FBD10B510BD75
:1001600000F02DF81146FFF7F7FF00F057FF00F001
:1001700045F803B4FFF7F2FF03BC00F04BF80000B2
:100180000748804707480047FEE7FEE7FEE7FEE72F
:10019000FEE7FEE704480549054A064B70470000A4
:1001A000290F0000C1000000700000207010002026
:1001B000700800207008002070477047704775462F
:1001C00000F024F8AE46050069465346C008C0005A
:1001D000854618B020B5FFF7DDFF60BCB6460026A7
:1001E0000027C0C5C0C5C0C5C0C5C0C5C0C5C0C545
:1001F000C0C5403D490849008D46704710B50446CA
:10020000C046C0462046FFF7B4FF10BD0048704707
:100210001000002001491820ABBEFEE726000200B6
:100220007047000070B5416818220B46D341062B79
:100230001ED2026810201346C341042B19D201209C
:1002400004020C4B1D46443D2E6826432E600405D7
:100250001D6825431D60072424061D68A5430D4322
:100260001D60032109041C688C4314431C6070BD8D
:10027000FEE7FEE770020040F0B588B0684A9042A1
:1002800000D0FEE70790012042020B681C46144391
:10029000944200D0B2E0C6024D682A463243B242D0
:1002A00000D0ACE0CC68042722463A43042A00D0B0
:1002B000A6E0059706940C690C222746D741042F27
:1002C00000D39EE020228A5C022A00D39AE00394A5
:1002D00004924C6A11222746D741082F00D392E09E
:1002E0008F6A14220297D741092F00D38CE0009423
:1002F000A34C276840223A4322600402494A976986
:100300000194274397611768FF0704D101245460C3
:1003100017682743176014680227274317600027D0
:100320005468E40704D17C1CBF0A7D2F2746F7D30D
:10033000079A9468844394609268D20765D1079ABB
:10034000D468394F3C401C43D460D368B3432B433B
:10035000D3600B7A5C1EA3419B028402D568A5433F
:10036000EB18D3604A7A002A019D00D11546079BFD
:10037000DC68A64A14402C43DC60DC68059DAC4375
:10038000069D2C43DC609C683C409C609C6814404B
:100390009C6003221203DC689443039A1443DC60DC
:1003A000F022D443DA6822404D691543DD600F2204
:1003B00015021E69AE430B252D0275191D611D69BD
:1003C00095438E692E431E611D692540C9692943E5
:1003D0001961D968049B002B1AD007235B04994349
:1003E000009B1943079BD9601105DA688A4302997B
:1003F0000A43DA600204D96811430CE0FEE7FEE725
:10040000FEE7FEE7FEE7FEE7FEE7002008B0F0BDEE
:10041000012212049143079AD16008B0F0BDC04692
:1004200000AC01400CA80140FFFDFFFF1748016828
:1004300004220A430260016801220A4302607047F5
:1004400010B5002806D004467D20C00000F004F856
:10045000641EF9D110BD000010B5044609480068BB
:10046000094900F067FE604301210906884200D374
:100470000846411E05484160002181600168C903AA
:10048000FCD510BD0000002040420F0010E000E04D
:10049000F0B582B0384A82180623DA41042A06D21F
:1004A0000A68364BD418641E9C4201D2FEE7FEE770
:1004B0004B68042B04D28C680194022C01D3FEE714
:1004C000FEE7CC680094022C00D3FEE72C4C256894
:1004D00080262E432660002A4BD000260FE0046AB7
:1004E000BC4304627F431C467C4303257D43C768AD
:1004F000AF432743C760761C1446F44039D0012728
:10050000B7401740F7D0FD43032B0ED104682C40B1
:10051000046044682C40446084682C408460846A91
:100520003C438462022BDDD11DE0846A2C4084624E
:100530000468002B01D02C4000E03C430460019C87
:10054000002C02D084683C4301E084682C40846025
:10055000009C002C02D044683C4301E044682C40DD
:100560004460022BBED10C69012CB8D1046A3C4313
:10057000B7E7012002B0F0BD00F4FFBF0100FFFFAC
:100580002802004080B5FFF751FF80BD10B54A1E1C
:100590003F2A00D936E0C0467A4412795200974487
:1005A0001F1F331F3333331F333333333333331F7F
:1005B0003333333333333333333333333333331F1F
:1005C00033333333333333333333333333333333FB
:1005D0003333333333333333333333333333331FFF
:1005E00000680A4A104200D0FEE7CAB2084B1C68F5
:1005F00014431C60484309021A688A4302431A6084
:10060000012010BD8029EBD0FEE7C046FFFEFFFFB2
:10061000000F00400548011F0968890704D50168DB
:10062000890701D5012101607047C0463CA80140FF
:10063000F0B581B0344D2868012738432860286818
:1006400002263043286005242046FFF705FF68682E
:10065000384368602046FFF7FFFE686830436860F3
:1006600001B0F0BD70B5284D686801263043686060
:10067000286802210143296005242046FFF7ECFE8B
:100680002868304328602046FFF7E6FE70BDC0466C
:10069000F0B581B0044600201B4F16E078680121B8
:1006A0000143796005252846FFF7D6FE3868022603
:1006B000304338602846FFF7CFFE786830437860D3
:1006C0000099481C6400072908D2009060B20028F5
:1006D000E4D53868012101433960E3E73868012433
:1006E0002043386005252846FFF7B6FE38683043BA
:1006F00038602846FFF7B0FEB86879683143796002
:100700008443204601B0F0BDD40C0040B0B586B0A3
:100710002F48016A55220A43AA218A4302620F2107
:1007200009040246083A13688B43136011680124D8
:10073000214311600168A143016001680225A943BA
:100740000160016830220A4340218A4302607F2110
:10075000090402688A432F210904511801600168C5
:100760000822914301600168214301600168090684
:10077000FCD518490A682243AA430A600C3801686C
:10078000294305229143016007210A02036893432C
:1007900003600A04036893430360C90402688A4340
:1007A000026000F021FB0020059004900390029568
:1007B000E0020190784801A9FFF76AFE0648016847
:1007C00004220A430B21C9431140016006B0B0BDA9
:1007D0001802004000100040000E0040F0B591B03B
:1007E00000F05EF80026029601273804019001A867
:1007F000FFF718FD10960F960E96380200900C9099
:1008000003250D95644840380CA9FFF741FE2020D0
:1008100001A90F54FF200230088104960296019628
:10082000059606960796B8050B9068040A90A020D6
:1008300008901A4C20461438FFF71EFD78042168F2
:1008400001432160780221680143216005960496E6
:100850000396022402940098019001AD4E48294667
:10086000FFF716FE059604960396029480200190E9
:1008700049482946FFF70CFE059602A8D0C004257A
:1008800001954548803801A9FFF702FE0C960CA897
:100890002946FFF77BFE11B0F0BDC04614AC014005
:1008A000F0B587B0002706970124059404970397B5
:1008B000200201900290384EC03E02AD30462946DB
:1008C000FFF7E6FD069705940497039460030290F2
:1008D00030462946FFF7DCFD0697059704970394F9
:1008E000A003029030462946FFF7D2FD06970597F0
:1008F0000497039408200290274E803E30462946F4
:10090000FFF7C6FD03970198029004970597069795
:1009100030462946FFF7BCFD0697059704970394D8
:10092000E002029030462946FFF7B2FD0697059493
:1009300004970397A00201900290174E304640386A
:100940002946FFF7A5FD06970597049403940294A2
:1009500030462946FFF79CFD0697059704940394BB
:100960000220029030462946FFF792FD0697059730
:10097000049703946002029030462946FFF788FDF1
:1009800006970597049703940198029030462946EC
:10099000FFF77EFD07B0F0BDC00C0040B0B5FFF71B
:1009A00047FE78252846FFF773FE00242046FFF710
:1009B0006FFE2120FFF76CFEFFF754FEFFF738FEB5
:1009C0002846FFF765FE2046FFF762FE2046FFF748
:1009D0005FFEFFF747FEFFF72BFE2846FFF758FEA6
:1009E0002046FFF755FE7F20FFF752FEFFF73AFE45
:1009F000FFF71EFE2846FFF74BFE2046FFF748FE96
:100A00002220FFF745FEFFF72DFEFFF711FE2846D7
:100A1000FFF73EFE2046FFF73BFE2046FFF738FE7D
:100A2000FFF720FEFFF704FE2846FFF731FE2046C1
:100A3000FFF72EFE0320FFF72BFEFFF713FE8025A6
:100A4000FFF7F6FD7820FFF723FE4020FFF720FE9A
:100A50000020FFF71DFEFFF705FE6D1EF0D1641CA0
:100A6000042CECD1B0BD000070B5012045030A4E46
:100A70003068284330600A242046FFF7E1FC7068A4
:100A8000284370602046FFF7DBFC30682843306065
:100A90006420FFF7D5FC70BD140C004070B5FFF763
:100AA000C7FD78242046FFF7F3FD00252846FFF711
:100AB000EFFDAE20FFF7ECFDFFF7D4FDFFF7B8FD2B
:100AC0002046FFF7E5FD2846FFF7E2FDD520FFF7BA
:100AD000DFFDFFF7C7FDFFF7ABFD2046FFF7D8FDB1
:100AE0002846FFF7D5FD8020FFF7D2FDFFF7BAFDBE
:100AF000FFF79EFD2046FFF7CBFD2846FFF7C8FD18
:100B0000A820FFF7C5FDFFF7ADFDFFF791FD2046DB
:100B1000FFF7BEFD2846FFF7BBFD2720FFF7B8FD16
:100B2000FFF7A0FDFFF784FD2046FFF7B1FD284643
:100B3000FFF7AEFDD320FFF7ABFDFFF793FDFFF707
:100B400077FD2046FFF7A4FD2846FFF7A1FD2846C4
:100B5000FFF79EFDFFF786FDFFF76AFD2046FFF7D2
:100B600097FD2846FFF794FD40263046FFF790FD9D
:100B7000FFF778FDFFF75CFD2046FFF789FD28466B
:100B8000FFF786FD8D20FFF783FDFFF76BFDFFF775
:100B90004FFD2046FFF77CFD2846FFF779FD142026
:100BA000FFF776FDFFF75EFDFFF742FD2046FFF7FA
:100BB0006FFD2846FFF76CFD2020FFF769FDFFF76A
:100BC00051FDFFF735FD2046FFF762FD2846FFF790
:100BD0005FFD1020FFF75CFDFFF744FDFFF728FDE8
:100BE0002046FFF755FD2846FFF752FDA120FFF7ED
:100BF0004FFDFFF737FDFFF71BFD2046FFF748FDD0
:100C00002846FFF745FDC020FFF742FDFFF72AFD0C
:100C1000FFF70EFD2046FFF73BFD2846FFF738FDA6
:100C2000DA20FFF735FDFFF71DFDFFF701FD204638
:100C3000FFF72EFD2846FFF72BFD1220FFF728FDBA
:100C4000FFF710FDFFF7F4FC2046FFF721FD2846D3
:100C5000FFF71EFD8120FFF71BFDFFF703FDFFF7E8
:100C6000E7FC2046FFF714FD2846FFF711FD7F2023
:100C7000FFF70EFDFFF7F6FCFFF7DAFC2046FFF763
:100C800007FD2846FFF704FDD920FFF701FDFFF718
:100C9000E9FCFFF7CDFC2046FFF7FAFC2846FFF7FA
:100CA000F7FCF120FFF7F4FCFFF7DCFCFFF7C0FCDA
:100CB0002046FFF7EDFC2846FFF7EAFCDB20FFF7B4
:100CC000E7FCFFF7CFFCFFF7B3FC2046FFF7E0FCA3
:100CD0002846FFF7DDFC3046FFF7DAFCFFF7C2FCE1
:100CE000FFF7A6FC2046FFF7D3FC2846FFF7D0FC11
:100CF000A420FFF7CDFCFFF7B5FCFFF799FC2046D9
:100D0000FFF7C6FC2846FFF7C3FCA620FFF7C0FC90
:100D1000FFF7A8FCFFF78CFC2046FFF7B9FC28463C
:100D2000FFF7B6FCAF20FFF7B3FCFFF79BFC642096
:100D3000FFF786FB70BD0000F0B581B01078002889
:100D400021D01D4604E0009A5078521C00281AD089
:100D50000092002DF7D001010C4A51180C4A8F184F
:100D6000072141430B484618E03E2C4606E0007838
:100D700000F012F8761C7F1C641EE4D0072D30466C
:100D8000F5D03846F3E701B0F0BDC046C31500000A
:100D900000FEFFFF2A13000010B50446FFF748FCD1
:100DA0007820FFF775FC4020FFF772FC2046FFF724
:100DB0006FFCFFF757FC10BDB0B50C460546FFF7BA
:100DC00037FC7820FFF764FC4020FFF761FC002C23
:100DD00006D02878FFF75CFC641E6D1C002CF8D14F
:100DE000FFF740FCB0BD0000B0B5424D2C460C3CB6
:100DF000206807210140481E06281DD87D210902D0
:100E0000784400794000874403061721285D1200CA
:100E10004048016856E02868800721D428460838F1
:100E200000680003010F022924D03C4823E0206819
:100E3000000718D5314945E0083D28680003000F38
:100E4000022812D03549012812D03BE0E86C800B13
:100E50000C2101402BA0415834E02948016831E0C1
:100E60002C4800680AE024492CE02B49012829D1AC
:100E70002B4927E02848012900D12948296849063B
:100E8000490FC0467944097949008F441203070984
:100E9000050D0F0B40080CE00C2108E0800808E06D
:100EA000C00806E0400904E0000902E0182100F053
:100EB00041F929684902490E491C41432868000745
:100EC000C00F814017480160216849054A0F012180
:100ED0007A44127952009744030303030906080475
:100EE000B0BD042102E0022100E003210268CA40F3
:100EF0000260B0BD18020040006CDC020087930362
:100F00000800002000093D0040420F0020A107001A
:100F100090D003000400002000366E0100127A0019
:100F20000024F40000000020F0B583B034480246ED
:100F3000143A002111600446203C05225306236028
:100F4000031F1D688026019635431D600F239B04F7
:100F50002C4EB5681D43B5600346083B196011026D
:100F60001A680A431A600123D90622680A432260DC
:100F7000AA21C16024490B600E224A602349032242
:100F800002920A60224E316A7F270A0C8DB25540C8
:100F9000204C4022A54201D0114600E039400546D0
:100FA000183D2960716A0D0C8EB26E40A64226462D
:100FB00001D0114600E03940C163154909680A0CA7
:100FC0008DB25540B54201D0019A00E0CAB2014647
:100FD0000C390A600299C9010A4C22680A4322604E
:100FE000016810221143016099020B4B1C680C43ED
:100FF0001C60016891430160FFF7F6FE03B0F0BD8D
:101000002C020040C40C004000A801400400004035
:1010100020FBFF1FFFFF00003C04004082B0FFF7F1
:10102000B1FAFFF773FBFFF7D9FBFFF71DFDFFF7E1
:1010300035FDFFF7B3FC7D208400012087022B4E95
:101040002B4DF068400722D4306800070ED470683A
:1010500008210143716000F053F82868384301C546
:1010600038461838FFF7ECF938460CE030680007CE
:101070000DD500F045F82046FFF7E2F900F040F802
:10108000354608350820296801432960184DF06C61
:101090003842D6D1F06C019000F032F83D46374628
:1010A00026460C3412480068204311490860304637
:1010B000FFF7C6F900F024F80D4840682043344695
:1010C0003E462F460A4D686038461838FFF7B8F993
:1010D0000A200723014607A2FFF72EFE0821074832
:1010E000FFF76AFE01983842D4D1AAE7500C0040BD
:1010F000D40C00404865636B65642000B31B00009E
:10110000F0B581B0FF2592350120C602084F38683E
:10111000304338607D242046FFF79EF978683043DD
:1011200078602046FFF798F96D1EF0D101B0F0BD50
:10113000540C004043088B421AD3002203098B420F
:1011400079D3030A8B425ED3030B8B4242D3030C49
:101150008B4227D30902FF2212BA030C8B4202D31F
:101160001212090203D0030B8B4233D31AE0D3E0EF
:10117000411A8041401C704703460B4371D4430819
:101180008B42F5D3002203098B4254D3030A8B42CE
:1011900039D3030B8B421DD3030C8B4202D39446ED
:1011A0006EE0090AC30B8B4201D3CB03C01A524134
:1011B000830B8B4201D38B03C01A5241430B8B42EA
:1011C00001D34B03C01A5241030B8B4201D30B03D3
:1011D000C01A5241C30A8B4201D3CB02C01A5241FA
:1011E000830A8B4201D38B02C01A5241430A8B42BD
:1011F00001D34B02C01A5241030A8B4201D30B02A6
:10120000C01A5241CDD2C3098B4201D3CB01C01ABF
:10121000524183098B4201D38B01C01A52414309C9
:101220008B4201D34B01C01A524103098B4201D3B7
:101230000B01C01A5241C3088B4201D3CB00C01A24
:10124000524183088B4201D38B00C01A524143089C
:101250008B4201D34B00C01A5241411A5241100037
:101260007047CA0F00D04942031000D34042534098
:1012700000229C4603098B422DD3030A8B4212D3D2
:101280008901FC2212BA030A8B420CD38901921104
:101290008B4208D3890192118B4204D3890137D044
:1012A000921100E08909C3098B4201D3CB01C01A16
:1012B000524183098B4201D38B01C01A5241430929
:1012C0008B4201D34B01C01A524103098B4201D317
:1012D0000B01C01A5241C3088B4201D3CB00C01A84
:1012E000524183088B4201D38B00C01A5241D9D29C
:1012F00043088B4201D34B00C01A5241411A00D21D
:1013000001465241104663465B1000D3404270478D
:1013100063465B1000D3404201B50021004201D07A
:10132000C9430846C046C04602BD00000000000098
:101330000000004F0000000000070007000000143C
:101340007F147F140000242A7F2A12000023130830
:101350006462000036495522500000000503000079
:101360000000001C22410000000041221C0000007F
:1013700014083E0814000008083E08080000005049
:101380003000000000080808080800000060600045
:10139000000000201008040200003E5149453E00B4
:1013A0000000427F40000000426151494600002198
:1013B00041454B3100001814127F100000274545AD
:1013C000453900003C4A49493000000171090503D4
:1013D000000036494949360000064949291E0000E7
:1013E00000363600000000005636000000000814E9
:1013F00022410000001414141414000000412214AF
:1014000008000002015109060000324979413E00FE
:10141000007E1111117E00007F4949493600003ECF
:101420004141412200007F4141221C00007F494987
:10143000494100007F0909090100003E4149497AFC
:1014400000007F0808087F000000417F4100000085
:101450002040413F0100007F0814224100007F40EE
:1014600040404000007F020C027F00007F04081013
:101470007F00003E4141413E00007F09090906000E
:10148000003E4151215E00007F09192946000046B7
:1014900049494931000001017F010100003F4040FE
:1014A000403F00001F2040201F00003F4038403FC9
:1014B00000006314081463000007087008070000A8
:1014C00061514945430000007F4141000000020492
:1014D00008102000000041417F00000004020102CA
:1014E00004000040404040400000000102040000B1
:1014F00000205454547800007F4844443800003899
:10150000444444200000384444487F000038545488
:1015100054180000087E09010200000C5252523E8D
:1015200000007F08040478000000447D40000000B3
:101530002040443D0000007F10284400000000418E
:101540007F400000007C0418047800007C0804043C
:10155000780000384444443800007C141414080017
:1015600000081414187C00007C08040408000048DB
:10157000545454200000043F44402000003C4040AC
:10158000207C00001C2040201C00003C4030403CDF
:101590000000442810284400000C5050503C00002B
:1015A0004464544C44000000083641000000000030
:1015B0007F000000000041360800000010080810FD
:1015C0000800000000000000000000000000000013
:1015D00000000000000008080808080808000018BB
:1015E00018000000486C24120000000000000000F9
:1015F0000000000000002424247F1212127F121227
:101600001200000000081C2A2A0A0C1828282A2A7E
:101610001C080800000022251515152A585454549A
:101620002200000000000C1212120A7625291191E6
:101630006E00000006060403000000000000000029
:1016400000000000402010100808080808081010CA
:1016500020400000020408081010101010100808A4
:101660000402000000000008086B1C1C6B08080046
:1016700000000000000000080808087F08080808AB
:101680000000000000000000000000000000000654
:101690000604030000000000000000FE000000003F
:1016A0000000000000000000000000000000000634
:1016B00006000000008040402020101008080404AC
:1016C00002020000000018244242424242424224E8
:1016D000180000000000080E08080808080808089C
:1016E0003E00000000003C4242422020100804421C
:1016F0007E00000000003C42422018204040422270
:101700001C0000000000203028242422227E2020FB
:101710007800000000007E0202021A2640404222A9
:101720001C0000000000382402021A264242422413
:101730001800000000007E22221010080808080887
:101740000800000000003C42424224182442424269
:101750003C000000000018244242426458404024EB
:101760001C00000000000000001818000000001815
:101770001800000000000000000008000000000049
:10178000080804000000402010080402040810208B
:101790004000000000000000007F0000007F00000B
:1017A000000000000000020408102040201008047F
:1017B0000200000000003C42424640201010001889
:1017C0001800000000001C225A555555552D422284
:1017D0001C00000000000808181414243C22424297
:1017E000E700000000001F2222221E224242422265
:1017F0001F00000000007C42420101010101422261
:101800001C00000000001F2242424242424242228B
:101810001F00000000003F4212121E12120242423C
:101820003F00000000003F4212121E12120202028C
:101830000700000000003C22220101017121222248
:101840001C0000000000E7424242427E4242424207
:10185000E700000000003E0808080808080808081B
:101860003E00000000007C1010101010101010102E
:1018700010110F0000007722120A0E0A1212222203
:101880007700000000000702020202020202024288
:101890007F000000000077363636362A2A2A2A2AA8
:1018A0006B0000000000E346464A4A525252626210
:1018B0004700000000001C224141414141414122BA
:1018C0001C00000000003F424242423E020202026F
:1018D0000700000000001C2241414141414D5332AC
:1018E0001C60000000003F4242423E12122222428F
:1018F000C700000000007C4242020418204042421F
:101900003E00000000007F49080808080808080891
:101910001C0000000000E742424242424242424272
:101920003C0000000000E74242222424141418085E
:101930000800000000006B494949495555362222EC
:10194000220000000000E742242418181824244232
:10195000E700000000007722221414080808080895
:101960001C00000000007E212010100804044242E8
:101970003F00000078080808080808080808080858
:101980000878000000020204040808081010202053
:10199000204040001E1010101010101010101010D9
:1019A000101E00003844000000000000000000008D
:1019B0000000000000000000000000000000000027
:1019C0000000FF000608000000000000000000000A
:1019D000000000000000000000003C427844424249
:1019E000FC0000000000030202021A2642424226C6
:1019F0001A00000000000000000038440202024407
:101A00003800000000006040404078444242426498
:101A1000D80000000000000000003C427E020242AC
:101A20003C0000000000F08808087E08080808084C
:101A30003E0000000000000000007C22221C023C4E
:101A400042423C000000030202023A464242424245
:101A5000E700000000000C0C00000E080808080851
:101A60003E00000000003030000038202020202000
:101A700020221E0000000302020272120A16122225
:101A80007700000000000E08080808080808080889
:101A90003E0000000000000000007F9292929292AF
:101AA000B70000000000000000003B4642424242F6
:101AB000E70000000000000000003C4242424242B9
:101AC0003C0000000000000000001B2642424222B1
:101AD0001E02070000000000000078444242424419
:101AE0007840E000000000000000774C040404048B
:101AF0001F0000000000000000007C42023C404249
:101B00003E0000000000000008083E080808080821
:101B100030000000000000000000634242424262C8
:101B2000DC000000000000000000E742242414084C
:101B300008000000000000000000EB494955552254
:101B4000220000000000000000007624181818246D
:101B50006E000000000000000000E742242414187A
:101B6000080807000000000000007E22100808445A
:101B70007E000000C02020202020102020202020D7
:101B800020C00010101010101010101010101010A5
:101B900010101000060808080808100808080808AF
:101BA0000806000C32C20000000000000000000027
:101BB0000000001E7B3F6F3F7B1EFF00E01B00000C
:101BC00000000020100000001C010000F01B0000BD
:101BD00010000020601000003C0100000000000028
:101BE00000127A0000127A0000800000000000005D
:04000005000000C136
:00000001FF
