:020000040000FA
:100000007010002081010000890100008B010000B8
:1000100000000000000000000000000000000000E0
:100020000000000000000000000000008D01000042
:1000300000000000000000008F010000910100009E
:100040009301000093010000930100009301000060
:100050009301000093010000930100009301000050
:100060009301000093010000930100009301000040
:10007000930100009301000051090000930100006A
:100080009301000093010000930100009301000020
:100090009301000093010000930100009301000010
:1000A0009301000093010000930100009301000000
:1000B00093010000930100009D08000093010000DF
:1000C00000F002F800F04CF812A030C808382418EC
:1000D0002D18AC4201D100F043F80FCCA246AB463C
:1000E0000CA730CF2D1B083F3F197C427F1E544484
:1000F0002D090426F441641EAC4201D300F030F80F
:100100000126334200D0FB1A3343984754465D46DC
:10011000DFE70000E81D0000081E0000103A02D3CF
:1001200078C878C1FAD8520701D330C830C101D598
:1001300004680C6070470000704700000023002432
:1001400000250026103A01D378C1FBD8520700D30E
:1001500030C100D50B6070471FB51FBD10B510BD75
:1001600000F02DF81146FFF7F7FF01F01BF900F042
:1001700045F803B4FFF7F2FF03BC00F04BF80000B2
:100180000748804707480047FEE7FEE7FEE7FEE72F
:10019000FEE7FEE704480549054A064B70470000A4
:1001A000B1120000C100000070000020701000209B
:1001B000700800207008002070477047704775462F
:1001C00000F024F8AE46050069465346C008C0005A
:1001D000854618B020B5FFF7DDFF60BCB6460026A7
:1001E0000027C0C5C0C5C0C5C0C5C0C5C0C5C0C545
:1001F000C0C5403D490849008D46704710B50446CA
:10020000C046C0462046FFF7B4FF10BD0048704707
:100210001000002001491820ABBEFEE726000200B6
:100220007047000070B5416818220B46D341062B79
:100230001ED2026810201346C341042B19D201209C
:1002400004020C4B1D46443D2E6826432E600405D7
:100250001D6825431D60072424061D68A5430D4322
:100260001D60032109041C688C4314431C6070BD8D
:10027000FEE7FEE770020040F0B588B0684A9042A1
:1002800000D0FEE70790012042020B681C46144391
:10029000944200D0B2E0C6024D682A463243B242D0
:1002A00000D0ACE0CC68042722463A43042A00D0B0
:1002B000A6E0059706940C690C222746D741042F27
:1002C00000D39EE020228A5C022A00D39AE00394A5
:1002D00004924C6A11222746D741082F00D392E09E
:1002E0008F6A14220297D741092F00D38CE0009423
:1002F0004C4C276840223A43226004024A4A9769DC
:100300000194274397611768FF0704D101245460C3
:1003100017682743176014680227274317600027D0
:100320005468E40704D17C1CBF0A7D2F2746F7D30D
:10033000079A9468844394609268D20765D1079ABB
:10034000D4683A4F3C401C43D460D368B3432B433A
:10035000D3600B7A5C1EA3419B028402D568A5433F
:10036000EB18D3604A7A002A019D00D11546079BFD
:10037000DC682F4A14402C43DC60DC68059DAC43EC
:10038000069D2C43DC609C683C409C609C6814404B
:100390009C6003221203DC689443039A1443DC60DC
:1003A000F022D443DA6822404D691543DD600F2204
:1003B00015021E69AE430B252D0275191D611D69BD
:1003C00095438E692E431E611D692540C9692943E5
:1003D0001961D968049B002B1AD007235B04994349
:1003E000009B1943079BD9601105DA688A4302997B
:1003F0000A43DA600204D96811430CE0FEE7FEE725
:10040000FEE7FEE7FEE7FEE7FEE7002008B0F0BDEE
:10041000012212049143079AD16008B0F0BDC04692
:1004200000AC0140280200400CA80140FFFDFFFF86
:10043000FFFEFFFF1548016804220A4302600168BD
:1004400001220A430260704710B5002806D0044616
:100450007D20C00000F004F8641EF9D110BD00003A
:1004600010B5044669480068694901F003F8604323
:1004700001210906884200D30846411E0348416015
:10048000002181600168C903FCD510BD10E000E0C7
:10049000B0B501680A4A114200D0FEE7094B184680
:1004A000443804688025254305600120C4071D6881
:1004B00025431D601C6814400C431C60B0BDC04641
:1004C000FFFFFFBF6C020040F0B581B00F4606464B
:1004D0004E4804684E4D2046294600F0CBFF7F2E43
:1004E0000DDD4C498E4200DD32E04C498E4200DD8C
:1004F00037E0802E00D141E0012109023CE0711E6D
:100500003F2900D946E0C0467944097949008F4423
:100510003535413541414135414141414141413507
:1005200041414141414141414141414141414135C7
:1005300041414141414141414141414141414141AB
:1005400041414141414141414141414141414135A7
:1005500031498E420BDC0121CA0296420ED00903BA
:100560000AE001214A02964208D0890204E00121F2
:100570004A03964202D089038E420BD1396804297E
:1005800006D27A68032A04D2BA68022A03D3FEE7A5
:10059000FEE7FEE7FEE7012E009001D1002006E015
:1005A00000223346521C5B08012BFBD1D0B2420023
:1005B000914080001AA21258284808389047B0B2DB
:1005C000B968012903D125490A68024302E0234999
:1005D0000A6882430A6076437A6872430F460323AF
:1005E00073430E1F37689F4317433760AC4205D3F0
:1005F000C822009B5A4300BF521EFCD14860012014
:100600008107174A116001B0F0BDC046000000200C
:1006100040420F00FF070000FF1F0000FF01000025
:100620005907000065070000B7070000C307000076
:10063000CF070000DD070000EB070000F90700000E
:100640000708000015080000710700007F07000080
:100650008D0700009B070000A9070000080D00405F
:1006600080E200E0F0B582B0384A82180623DA4111
:10067000042A06D20A68364BD418641E9C4201D262
:10068000FEE7FEE74B68042B04D28C680194022C31
:1006900001D3FEE7FEE7CC680094022C00D3FEE70E
:1006A0002C4C256880262E432660002A4BD000263D
:1006B0000FE0046ABC4304627F431C467C4303256D
:1006C0007D43C768AF432743C760761C1446F44098
:1006D00039D00127B7401740F7D0FD43032B0ED187
:1006E00004682C40046044682C40446084682C40BA
:1006F0008460846A3C438462022BDDD11DE0846AFD
:100700002C4084620468002B01D02C4000E03C4364
:100710000460019C002C02D084683C4301E08468A2
:100720002C408460009C002C02D044683C4301E0D3
:1007300044682C404460022BBED10C69012CB8D116
:10074000046A3C43B7E7012002B0F0BD00F4FFBFEC
:100750000100FFFF28020040026803239A430A4376
:100760000260704702680C239A430A430260704794
:1007700003221205036893430B430360704703226F
:100780009205036893430B430360704703221206EC
:10079000036893430B430360704703229206036888
:1007A00093430B430360704703221207036893438C
:1007B0000B4303607047026830239A430A43026088
:1007C00070470268C0239A430A43026070470322BD
:1007D0001202036893430B430360704703229202A3
:1007E000036893430B4303607047032212030368BB
:1007F00093430B43036070470322920303689343C0
:100800000B430360704703221204036893430B43B6
:100810000360704703229204036893430B43036011
:10082000704780B5FFF706FE80BD000010B5026876
:10083000042A01D303220260002905D41F220A40A2
:1008400001239340114A13600068002905D4032254
:100850000B4693430F4A9A1803E00C220A400C4BB4
:10086000D2188B07DB0E8007000E9840FF249C40B7
:100870001368A34303431360002905D41F200140DC
:10088000012088400449086010BDC04680E100E0B6
:1008900014ED00E000E400E000E100E0F0B581B01C
:1008A0000127BC02674DA86B4005284E14D5AC63E8
:1008B0007D208000009404460C342968214329607F
:1008C000FFF7C2FD00F0A4FD68682043009C68604B
:1008D000B803316801433160A86B40070CD5042090
:1008E000A86328682043286000F0AAFD6420FFF771
:1008F000ABFD686820436860A86BC00623D5102054
:10090000A863F06B00070DD4306C082101433164FB
:1009100000F066FD2868204301C520461838FFF71F
:1009200093FD0DE0F06B00070DD500F059FD7D2023
:100930008000FFF789FD00F053FD4436082435465A
:1009400028682043286001B0F0BDC046140C004068
:100950000548011F0968890704D50168890701D581
:10096000012101607047C0463CA80140F0B581B04C
:10097000344D286801273843286028680226304310
:10098000286005242046FFF76BFD686838436860DF
:100990002046FFF765FD68683043686001B0F0BD30
:1009A00070B5284D686801263043686028680221C8
:1009B0000143296005242046FFF752FD2868304393
:1009C00028602046FFF74CFD70BDC046F0B581B0F1
:1009D000044600201B4F16E078680121014379602E
:1009E00005252846FFF73CFD38680226304338606D
:1009F0002846FFF735FD7868304378600099481C39
:100A00006400072908D2009060B20028E4D5386855
:100A1000012101433960E3E738680124204338604D
:100A200005252846FFF71CFD386830433860284606
:100A3000FFF716FDB8687968314379608443204632
:100A400001B0F0BDD40C0040B0B586B02F48016AAB
:100A500055220A43AA218A4302620F210904024651
:100A6000083A13688B431360116801242143116015
:100A70000168A143016001680225A9430160016882
:100A800030220A4340218A4302607F210904026820
:100A90008A432F21090451180160016808229143FB
:100AA000016001682143016001680906FCD518490D
:100AB0000A682243AA430A600C38016829430522C8
:100AC0009143016007210A020368934303600A040B
:100AD000036893430360C90402688A43026000F01C
:100AE00047FB00200590049003900295E0020190DE
:100AF0008B4801A9FFF7B6FD0648016804220A43A6
:100B00000B21C9431140016006B0B0BD180200407E
:100B100000100040000E0040F0B593B000F0A4F8C3
:100B20000027049701252804039003A8FFF77AFB08
:100B300012971197109728020E90064602900324F0
:100B40000F944748403001900EA9FFF78BFD2020FD
:100B500003A90D54FF2002300881069704970397DC
:100B6000079708970997A8050D9060040C90A0209E
:100B70000A903C4C20461438FFF77EFB680421683D
:100B8000014321606802216801432160039703A8A3
:100B9000FFF77EFC07970695059704970396304C60
:100BA0002046403803A9FFF75DFD10950F950E977D
:100BB00004260EA93046FFF787FC07970695059790
:100BC0000497039603A926462046FFF74BFD109590
:100BD0000F9702240E9410200EA9FFF775FC0497BE
:100BE0000298039005970697079703A93046FFF7E9
:100BF00039FD10950F970E9740200EA9FFF764FC62
:100C00000797069505970497AE02039603A90198E6
:100C1000FFF728FD10950F950E940EA93046FFF7AB
:100C200053FC0797069705970494029803900C4885
:100C3000803003AD06462946FFF714FD0797069757
:100C4000059704948020039030462946FFF70AFD5B
:100C5000039703A81E21FFF7E9FD13B0F0BDC046BE
:100C6000400C004014AC0140F0B585B0002704975B
:100C7000012403940297019460030090284EC03E23
:100C80006D4630462946FFF7EDFC0497039702971F
:100C90000194A003009030462946FFF7E3FC049737
:100CA000039702970194082000901D4E803E304625
:100CB0002946FFF7D7FC0497039702970194E002B7
:100CC000009030462946FFF7CDFC04970397029425
:100CD00001940094124E30462946FFF7C3FC049756
:100CE0000397029401940220009030462946FFF7B2
:100CF000B9FC049703970297019460020090304674
:100D00002946FFF7AFFC0497039702970194A002CE
:100D1000009030462946FFF7A5FC05B0F0BDC0465F
:100D2000C00C0040B0B5FFF721FE78252846FFF73C
:100D30004DFE00242046FFF749FE2120FFF746FE26
:100D4000FFF72EFEFFF712FE2846FFF73FFE204674
:100D5000FFF73CFE2046FFF739FEFFF721FEFFF7C5
:100D600005FE2846FFF732FE2046FFF72FFE7F20C4
:100D7000FFF72CFEFFF714FEFFF7F8FD2846FFF7FC
:100D800025FE2046FFF722FE2220FFF71FFEFFF779
:100D900007FEFFF7EBFD2846FFF718FE2046FFF79A
:100DA00015FE2046FFF712FEFFF7FAFDFFF7DEFD06
:100DB0002846FFF70BFE2046FFF708FE0320FFF74B
:100DC00005FEFFF7EDFD8025FFF7D0FD7820FFF74A
:100DD000FDFD4020FFF7FAFD0020FFF7F7FDFFF7CC
:100DE000DFFD6D1EF0D1641C042CECD1B0BD000001
:100DF00070B5012045030A4E3068284330600A244C
:100E00002046FFF721FB7068284370602046FFF7FB
:100E10001BFB3068284330606420FFF715FB70BD72
:100E2000140C004070B5FFF7A1FD78242046FFF7B1
:100E3000CDFD00252846FFF7C9FDAE20FFF7C6FD12
:100E4000FFF7AEFDFFF792FD2046FFF7BFFD2846F6
:100E5000FFF7BCFDD520FFF7B9FDFFF7A1FDFFF7B8
:100E600085FD2046FFF7B2FD2846FFF7AFFD802045
:100E7000FFF7ACFDFFF794FDFFF778FD2046FFF785
:100E8000A5FD2846FFF7A2FDA820FFF79FFDFFF76D
:100E900087FDFFF76BFD2046FFF798FD2846FFF71B
:100EA00095FD2720FFF792FDFFF77AFDFFF75EFD26
:100EB0002046FFF78BFD2846FFF788FDD320FFF77C
:100EC00085FDFFF76DFDFFF751FD2046FFF77EFD25
:100ED0002846FFF77BFD2846FFF778FDFFF760FD0A
:100EE000FFF744FD2046FFF771FD2846FFF76EFD32
:100EF00040263046FFF76AFDFFF752FDFFF736FD4B
:100F00002046FFF763FD2846FFF760FD8D20FFF7C1
:100F10005DFDFFF745FDFFF729FD2046FFF756FD74
:100F20002846FFF753FD1420FFF750FDFFF738FD6B
:100F3000FFF71CFD2046FFF749FD2846FFF746FD59
:100F40002020FFF743FDFFF72BFDFFF70FFD2046A5
:100F5000FFF73CFD2846FFF739FD1020FFF736FD6F
:100F6000FFF71EFDFFF702FD2046FFF72FFD284685
:100F7000FFF72CFDA120FFF729FDFFF711FDFFF77B
:100F8000F5FC2046FFF722FD2846FFF71FFDC02095
:100F9000FFF71CFDFFF704FDFFF7E8FC2046FFF715
:100FA00015FD2846FFF712FDDA20FFF70FFDFFF7CA
:100FB000F7FCFFF7DBFC2046FFF708FD2846FFF7AC
:100FC00005FD1220FFF702FDFFF7EAFCFFF7CEFC5C
:100FD0002046FFF7FBFC2846FFF7F8FC8120FFF7CF
:100FE000F5FCFFF7DDFCFFF7C1FC2046FFF7EEFC48
:100FF0002846FFF7EBFC7F20FFF7E8FCFFF7D0FC6B
:10100000FFF7B4FC2046FFF7E1FC2846FFF7DEFCC3
:10101000D920FFF7DBFCFFF7C3FCFFF7A7FC204656
:10102000FFF7D4FC2846FFF7D1FCF120FFF7CEFCF8
:10103000FFF7B6FCFFF79AFC2046FFF7C7FC2846EF
:10104000FFF7C4FCDB20FFF7C1FCFFF7A9FCFFF7AB
:101050008DFC2046FFF7BAFC2846FFF7B7FC304668
:10106000FFF7B4FCFFF79CFCFFF780FC2046FFF77E
:10107000ADFC2846FFF7AAFCA420FFF7A7FCFFF76A
:101080008FFCFFF773FC2046FFF7A0FC2846FFF714
:101090009DFCA620FFF79AFCFFF782FCFFF766FC99
:1010A0002046FFF793FC2846FFF790FCAF20FFF7A0
:1010B0008DFCFFF775FC6420FFF7C6F970BD0000DA
:1010C000F0B581B01078002821D01D4604E0009AC8
:1010D0005078521C00281AD00092002DF7D0010140
:1010E0000C4A51180C4A8F18072141430B484618E7
:1010F000E03E2C4606E0007800F012F8761C7F1CDB
:10110000641EE4D0072D3046F5D03846F3E701B031
:10111000F0BDC0460319000000FEFFFF6A16000084
:1011200010B50446FFF722FC7820FFF74FFC402063
:10113000FFF74CFC2046FFF749FCFFF731FC10BDE0
:10114000B0B50C460546FFF711FC7820FFF73EFCD2
:101150004020FFF73BFC002C06D02878FFF736FC38
:10116000641E6D1C002CF8D1FFF71AFCB0BD000006
:10117000B0B5424D2C460C3C206807210140481E6A
:1011800006281DD87D210902784400794000874453
:1011900003061721285D12004048016856E02868C0
:1011A000800721D42846083800680003010F02296F
:1011B00024D03C4823E02068000718D5314945E099
:1011C000083D28680003000F022812D03549012885
:1011D00012D03BE0E86C800B0C2101402BA0415861
:1011E00034E02948016831E02C4800680AE02449CD
:1011F0002CE02B49012829D12B4927E02848012937
:1012000000D1294829684906490FC046794409791F
:1012100049008F4412030709050D0F0B40080CE02D
:101220000C2108E0800808E0C00806E0400904E05E
:10123000000902E0182100F01DF929684902490E51
:10124000491C414328680007C00F814017480160CE
:10125000216849054A0F01217A44127952009744C6
:101260000303030309060804B0BD042102E00221C0
:1012700000E003210268CA400260B0BD18020040CD
:10128000006CDC02008793030800002000093D0089
:1012900040420F0020A1070090D00300040000206E
:1012A00000366E0100127A000024F40000000020D5
:1012B000F0B583B034480246143A00211160044668
:1012C000203C052253062360031F1D6880260196DB
:1012D00035431D600F239B042C4EB5681D43B5603C
:1012E0000346083B196011021A680A431A60012379
:1012F000D90622680A432260AA21C16024490B60F2
:101300000E224A602349032202920A60224E316A69
:101310007F270A0C8DB25540204C4022A54201D0B7
:10132000114600E039400546183D2960716A0D0CF0
:101330008EB26E40A642264601D0114600E03940EA
:10134000C163154909680A0C8DB25540B54201D0F8
:10135000019A00E0CAB201460C390A600299C9013B
:101360000A4C22680A43226001681022114301607E
:1013700099020B4B1C680C431C600168914301608F
:10138000FFF7F6FE03B0F0BD2C020040C40C004095
:1013900000A801400400004020FBFF1FFFFF0000E9
:1013A0003C040040FFF73DFAFFF74EFBFFF7B4FBAC
:1013B000FFF71EFDFFF736FDFFF7B4FC0A2005A27C
:1013C00007230146FFF77CFE04480821FFF7B8FE1B
:1013D000FEE7C0464865636B65642000F31E0000AD
:1013E000F0B581B0FF2592350120C602204F386844
:1013F000304338607D242046FFF732F87868304368
:1014000078602046FFF72CF86D1EF0D101B0F0BDDA
:10141000F0B581B00120C5020B26154F386828436E
:1014200038607D242046FFF71BF8786828437860F1
:101430002046FFF715F8761EF0D101B0F0BDC0468A
:10144000F0B581B00120C5020326094F3868284352
:1014500038607D242046FFF703F8786828437860D9
:101460002046FEF7FDFF761EF0D101B0F0BDC0466C
:10147000540C004043088B421AD3002203098B42CC
:1014800079D3030A8B425ED3030B8B4242D3030C06
:101490008B4227D30902FF2212BA030C8B4202D3DC
:1014A0001212090203D0030B8B4233D31AE0D3E0AC
:1014B000411A8041401C704703460B4371D44308D6
:1014C0008B42F5D3002203098B4254D3030A8B428B
:1014D00039D3030B8B421DD3030C8B4202D39446AA
:1014E0006EE0090AC30B8B4201D3CB03C01A5241F1
:1014F000830B8B4201D38B03C01A5241430B8B42A7
:1015000001D34B03C01A5241030B8B4201D30B038F
:10151000C01A5241C30A8B4201D3CB02C01A5241B6
:10152000830A8B4201D38B02C01A5241430A8B4279
:1015300001D34B02C01A5241030A8B4201D30B0262
:10154000C01A5241CDD2C3098B4201D3CB01C01A7C
:10155000524183098B4201D38B01C01A5241430986
:101560008B4201D34B01C01A524103098B4201D374
:101570000B01C01A5241C3088B4201D3CB00C01AE1
:10158000524183088B4201D38B00C01A5241430859
:101590008B4201D34B00C01A5241411A52411000F4
:1015A0007047CA0F00D04942031000D34042534055
:1015B00000229C4603098B422DD3030A8B4212D38F
:1015C0008901FC2212BA030A8B420CD389019211C1
:1015D0008B4208D3890192118B4204D3890137D001
:1015E000921100E08909C3098B4201D3CB01C01AD3
:1015F000524183098B4201D38B01C01A52414309E6
:101600008B4201D34B01C01A524103098B4201D3D3
:101610000B01C01A5241C3088B4201D3CB00C01A40
:10162000524183088B4201D38B00C01A5241D9D258
:1016300043088B4201D34B00C01A5241411A00D2D9
:1016400001465241104663465B1000D3404270474A
:1016500063465B1000D3404201B50021004201D037
:10166000C9430846C046C04602BD00000000000055
:101670000000004F000000000007000700000014F9
:101680007F147F140000242A7F2A120000231308ED
:101690006462000036495522500000000503000036
:1016A0000000001C22410000000041221C0000003C
:1016B00014083E0814000008083E08080000005006
:1016C0003000000000080808080800000060600002
:1016D000000000201008040200003E5149453E0071
:1016E0000000427F40000000426151494600002155
:1016F00041454B3100001814127F1000002745456A
:10170000453900003C4A4949300000017109050390
:10171000000036494949360000064949291E0000A3
:1017200000363600000000005636000000000814A5
:10173000224100000014141414140000004122146B
:1017400008000002015109060000324979413E00BB
:10175000007E1111117E00007F4949493600003E8C
:101760004141412200007F4141221C00007F494944
:10177000494100007F0909090100003E4149497AB9
:1017800000007F0808087F000000417F4100000042
:101790002040413F0100007F0814224100007F40AB
:1017A00040404000007F020C027F00007F040810D0
:1017B0007F00003E4141413E00007F0909090600CB
:1017C000003E4151215E00007F0919294600004674
:1017D00049494931000001017F010100003F4040BB
:1017E000403F00001F2040201F00003F4038403F86
:1017F0000000631408146300000708700807000065
:1018000061514945430000007F414100000002044E
:1018100008102000000041417F0000000402010286
:10182000040000404040404000000001020400006D
:1018300000205454547800007F4844443800003855
:10184000444444200000384444487F000038545445
:1018500054180000087E09010200000C5252523E4A
:1018600000007F08040478000000447D4000000070
:101870002040443D0000007F10284400000000414B
:101880007F400000007C0418047800007C080404F9
:10189000780000384444443800007C1414140800D4
:1018A00000081414187C00007C0804040800004898
:1018B000545454200000043F44402000003C404069
:1018C000207C00001C2040201C00003C4030403C9C
:1018D0000000442810284400000C5050503C0000E8
:1018E0004464544C440000000836410000000000ED
:1018F0007F000000000041360800000010080810BA
:1019000008000000000000000000000000000000CF
:101910000000000000000808080808080800001877
:1019200018000000486C24120000000000000000B5
:101930000000000000002424247F1212127F1212E3
:101940001200000000081C2A2A0A0C1828282A2A3B
:101950001C080800000022251515152A5854545457
:101960002200000000000C1212120A7625291191A3
:101970006E000000060604030000000000000000E6
:101980000000000040201010080808080808101087
:101990002040000002040808101010101010080861
:1019A0000402000000000008086B1C1C6B08080003
:1019B00000000000000000080808087F0808080868
:1019C0000000000000000000000000000000000611
:1019D0000604030000000000000000FE00000000FC
:1019E00000000000000000000000000000000006F1
:1019F0000600000000804040202010100808040469
:101A000002020000000018244242424242424224A4
:101A1000180000000000080E080808080808080858
:101A20003E00000000003C424242202010080442D8
:101A30007E00000000003C4242201820404042222C
:101A40001C0000000000203028242422227E2020B8
:101A50007800000000007E0202021A264040422266
:101A60001C0000000000382402021A2642424224D0
:101A70001800000000007E22221010080808080844
:101A80000800000000003C42424224182442424226
:101A90003C000000000018244242426458404024A8
:101AA0001C000000000000000018180000000018D2
:101AB0001800000000000000000008000000000006
:101AC0000808040000004020100804020408102048
:101AD0004000000000000000007F0000007F0000C8
:101AE000000000000000020408102040201008043C
:101AF0000200000000003C42424640201010001846
:101B00001800000000001C225A555555552D422240
:101B10001C00000000000808181414243C22424253
:101B2000E700000000001F2222221E224242422221
:101B30001F00000000007C4242010101010142221D
:101B40001C00000000001F22424242424242422248
:101B50001F00000000003F4212121E1212024242F9
:101B60003F00000000003F4212121E121202020249
:101B70000700000000003C22220101017121222205
:101B80001C0000000000E7424242427E42424242C4
:101B9000E700000000003E080808080808080808D8
:101BA0003E00000000007C101010101010101010EB
:101BB00010110F0000007722120A0E0A12122222C0
:101BC0007700000000000702020202020202024245
:101BD0007F000000000077363636362A2A2A2A2A65
:101BE0006B0000000000E346464A4A5252526262CD
:101BF0004700000000001C22414141414141412277
:101C00001C00000000003F424242423E020202022B
:101C10000700000000001C2241414141414D533268
:101C20001C60000000003F4242423E12122222424B
:101C3000C700000000007C424202041820404242DB
:101C40003E00000000007F4908080808080808084E
:101C50001C0000000000E74242424242424242422F
:101C60003C0000000000E74242222424141418081B
:101C70000800000000006B494949495555362222A9
:101C8000220000000000E7422424181818242442EF
:101C9000E700000000007722221414080808080852
:101CA0001C00000000007E212010100804044242A5
:101CB0003F00000078080808080808080808080815
:101CC0000878000000020204040808081010202010
:101CD000204040001E101010101010101010101096
:101CE000101E00003844000000000000000000004A
:101CF00000000000000000000000000000000000E4
:101D00000000FF00060800000000000000000000C6
:101D1000000000000000000000003C427844424205
:101D2000FC0000000000030202021A264242422682
:101D30001A000000000000000000384402020244C3
:101D40003800000000006040404078444242426455
:101D5000D80000000000000000003C427E02024269
:101D60003C0000000000F08808087E080808080809
:101D70003E0000000000000000007C22221C023C0B
:101D800042423C000000030202023A464242424202
:101D9000E700000000000C0C00000E08080808080E
:101DA0003E000000000030300000382020202020BD
:101DB00020221E0000000302020272120A161222E2
:101DC0007700000000000E08080808080808080846
:101DD0003E0000000000000000007F92929292926C
:101DE000B70000000000000000003B4642424242B3
:101DF000E70000000000000000003C424242424276
:101E00003C0000000000000000001B26424242226D
:101E10001E020700000000000000784442424244D5
:101E20007840E000000000000000774C0404040447
:101E30001F0000000000000000007C42023C404205
:101E40003E0000000000000008083E0808080808DE
:101E50003000000000000000000063424242426285
:101E6000DC000000000000000000E7422424140809
:101E700008000000000000000000EB494955552211
:101E8000220000000000000000007624181818242A
:101E90006E000000000000000000E7422424141837
:101EA000080807000000000000007E221008084417
:101EB0007E000000C0202020202010202020202094
:101EC00020C0001010101010101010101010101062
:101ED000101010000608080808081008080808086C
:101EE0000806000C32C200000000000000000000E4
:101EF0000000001E7B3F6F3F7B1EFF00201F000085
:101F000000000020100000001C010000301F000035
:101F100010000020601000003C01000000000000E4
:101F200000127A0000127A00008000000000000019
:04000005000000C136
:00000001FF
