:020000040000FA
:1000000070100020A1010000A9010000AB01000058
:1000100000000000000000000000000000000000E0
:10002000000000000000000000000000AD01000022
:100030000000000000000000AF010000B10100005E
:10004000B3010000B3010000B3010000B3010000E0
:10005000B3010000B3010000B3010000B3010000D0
:10006000B3010000B3010000B3010000B3010000C0
:10007000B3010000B301000061260000B3010000DD
:10008000B3010000B3010000B3010000B3010000A0
:10009000B3010000B3010000B3010000B301000090
:1000A000B3010000B3010000B3010000B301000080
:1000B000B3010000B301000061240000B30100009F
:1000C00000F002F800F05CF812A030C808382418DC
:1000D0002D18AC4201D100F053F80FCCA246AB462C
:1000E0000CA730CF2D1B083F3F197C427F1E544484
:1000F0002D090426F441641EAC4201D300F040F8FF
:100100000126334200D0FB1A3343984754465D46DC
:10011000DFE700000440000024400000103A02D352
:1001200078C878C1FAD8520701D330C830C101D598
:1001300004680C6070470000704700000023002432
:1001400000250026103A01D378C1FBD8520700D30E
:1001500030C100D50B60704710B5662902D103F09D
:10016000E3FA10BD002010BD1FB501F0EBF904004B
:100170000020002103F06AFAE0601FBD10B510BD39
:1001800001F0AAFD1146FFF7EFFF03F08BF801F035
:10019000C2FD03B4FFF7F2FF03BC01F01DFE000037
:1001A0000748804707480047FEE7FEE7FEE7FEE70F
:1001B000FEE7FEE704480549054A064B7047000084
:1001C000F92F0000C1000000700000207010002016
:1001D00070080020700800204343514330B55C187C
:1001E000010C130C0D4692B25D4380B251432C19A1
:1001F000054655430A0C09044D1962415843010C48
:1002000000044019514130BDFEB5044610460D466C
:10021000184373D0A6468C460020A41A01469D417F
:1002200067D36646002701243D46B61A9D4102D396
:1002300013463A462124654676462F04360C3E4343
:100240002D0CB61A9D4104D3150C1B042B4312042C
:100250001034654676462F06360A3E432D0AB61AF6
:100260009D4104D3150E1B022B4312020834654630
:1002700076462F0736093E432D09B61A9D4104D311
:10028000150F1B012B431201241D65467646AF074F
:10029000B6083E43AD08B61A9D4104D3950F9B00A6
:1002A0002B439200A41C65467646EF0776083E4332
:1002B0006D08B61A9D411AD392185B41641C16E072
:1002C0000018764665464941B71A9D410191009054
:1002D00009D36046B11A98418E4684460098019928
:1002E0000025401C6941DD0752082A435B08641E53
:1002F000E6D57246634603B0F0BDFFE720462843CB
:1003000007D00020C0430146C046C04622462B46C7
:10031000F1E700200146F7E70FB41CB50C0007AA6F
:10032000009007D04142A14202D30019401E01E0D3
:100330000020C043074B7B4469460190069801F0BA
:10034000E6F80020002C01D0009908701CBC08BC05
:1003500004B01847FB110000F3B50446002081B03B
:1003600020622046E168884700287AD0252802D0FC
:100370006268A16871E0E16820460025884706466A
:100380000020E0610746A0612A2E0AD0304603F023
:1003900055F9002827D0B8000019303E009086613A
:1003A00019E00298BA00121902C891610290204621
:1003B000E1688847012F064617D1E06900281FDA57
:1003C000202085431CE000980A2180694843009959
:1003D0008019303888612046E1688847064603F076
:1003E0002DF90028EFD1012F0AD02E2E08D120465A
:1003F000E16888470646202005437F1C022FC3DBA7
:10040000A069002803DA4042A06101200543E80703
:1004100001D010208543002E23D0304641381928C2
:1004200003D80120C002054320362046256031460E
:10043000029A1546FFF790FE00280BD0012806D03F
:10044000ED1DE808C000083002908AE709E02D1D84
:10045000029586E762683046A1689047206A401C92
:100460007EE7206AFEBD0000002203098B4273D3A1
:10047000030A8B4258D3030B8B423CD3030C8B42B1
:1004800021D312E003460B437FD4002243088B4262
:1004900074D303098B425FD3030A8B4244D3030B0B
:1004A0008B4228D3030C8B420DD30902FF2212BAD0
:1004B000030C8B4202D31212090265D0030B8B424C
:1004C00019D300E0090AC30B8B4201D3CB03C01A36
:1004D0005241830B8B4201D38B03C01A5241430B11
:1004E0008B4201D34B03C01A5241030B8B4201D301
:1004F0000B03C01A5241C30A8B4201D3CB02C01A6C
:100500005241830A8B4201D38B02C01A5241430AE3
:100510008B4201D34B02C01A5241030A8B4201D3D2
:100520000B02C01A5241CDD2C3098B4201D3CB0179
:10053000C01A524183098B4201D38B01C01A524128
:1005400043098B4201D34B01C01A524103098B422C
:1005500001D30B01C01A5241C3088B4201D3CB0017
:10056000C01A524183088B4201D38B00C01A5241FA
:1005700043088B4201D34B00C01A5241411A00D2AA
:1005800001465241104670475DE0CA0F00D0494213
:10059000031000D3404253409C46002203098B4283
:1005A0002DD3030A8B4212D38901FC2212BA030A0B
:1005B0008B420CD3890192118B4208D3890192118D
:1005C0008B4204D389013AD0921100E08909C30912
:1005D0008B4201D3CB01C01A524183098B4201D314
:1005E0008B01C01A524143098B4201D34B01C01AFF
:1005F000524103098B4201D30B01C01A5241C30877
:100600008B4201D3CB00C01A524183088B4201D3E5
:100610008B00C01A5241D9D243088B4201D34B0000
:10062000C01A5241411A00D2014652411046634657
:100630005B1001D34042002B00D54942704763460E
:100640005B1000D3404201B50449002802DC491C7C
:10065000084000E00846C046C04602BDFFFFFF7FDD
:1006600070477047704700000246C80FC0078143BB
:100670004B0030B54B405B009B0D20D01923DB06AF
:10068000C91801231B05994220DB0324A407042574
:100690001346AB400BD3002B04D1EB0613409B0059
:1006A000E34204D401246407002312195941FF23B3
:1006B0001B0599420BD2C9000143500F09E0CB0240
:1006C00004D501430803024305D0054830BDFF218E
:1006D000C905084330BD084607210905884330BDD8
:1006E0000000C07FF0B50C46871A9C410D46861A63
:1006F0009D4103D2C01BA141D21963410D0D1F0DB5
:10070000C94EEC1BAE435CD07F057F0D0026002F49
:1007100051D02D05AC46A943DD020123ED0A1B058E
:100720001D4320231B1B24D41746E7403818714172
:100730002F46E740CC199D402818314661410C0DE9
:1007400027D161449A4013D50023401C59415200DF
:100750000ED14008400001224B005205D34207D37E
:1007600005204007C14201D5B04900E0B0493046FC
:10077000F0BD6B00002A00D001229A181F23203CF4
:100780001B1B01D5002302E0E540281871410C0D28
:10079000D7D0012424050919C407CD07400849080A
:1007A000E40F28436144002CD5D00024401C614153
:1007B0009A40D0D1CDE76A05520DD9D1C90FC907EA
:1007C000D5E79C4D4E00002801D0012400E0002414
:1007D00034195F00002A01D0012600E00026BE196E
:1007E000954FAC420CD8AE420AD8B44206D001258F
:1007F0006D05EC42BCD010461946F0BD9942FCD0C4
:1008000000203946F0BDF0B51FB40C460F46811AE2
:100810009F412546861A9D4106D20125ED076F406E
:10082000401ABC4152187B41210D1E0D8D1BAC4658
:100830007D4D8D437ED075056D0D7CD00D05AE468A
:10084000AC431B031B0B794D52429D41202366464E
:100850009B1B14D31746F7403818002600907441AC
:1008600060462F460741E41900989D4028186641CC
:1008700016D4714671189A4025D5012320E09318AB
:100880002A466A415200002B00D0521C1E23203EF3
:100890009B1B002B61DD3541EE1728186641E8D51A
:1008A000001876415B1C9A4000D3401C4B05F3189E
:1008B0001524E34010D3002B52D071467118D30F8A
:1008C000C01802D3491C05B0F0BD0123DB079A42D2
:1008D000F9D140084000F6E701225205B21801D1D3
:1008E000002853D00123CC0ADB029943891E002A39
:1008F00008D1020C03D0020C0004103902E00246B9
:10090000002020390023550B05D112020823550B76
:1009100001D152010D23550C01D112011B1DD50C23
:1009200001D192009B1C150D01D152005B1C2025AA
:10093000EE1A01E02CE022E00546F5401543984010
:10094000CA1AE10769181305C918002ABBDA03207F
:1009500040070818C10FC9070FE071466118B2E7D8
:10096000F10740080843711071444A000CD001237C
:100970005B059A42A7D2C90FC9070020A3E7490522
:10098000490D26D1002001E00028F4D100219AE78A
:10099000284D6600002801D0012100E000217118D7
:1009A0005F00002A01D0012600E00026BE19224F78
:1009B000A94210D8AE420ED8B14208D001256D052B
:1009C000E94206D01946A802414010467BE79C4206
:1009D00001D0214677E70020394674E710B50C4670
:1009E0005C4005D50124E4076340FFF70CFF10BD10
:1009F000FFF778FE10BD30B40C465C4004D50124EE
:100A0000E407634030BC6DE630BCFCE670B5012401
:100A1000E40761400D465D4002D4FFF763FE70BD00
:100A20006340FFF7F0FE70BDFF0700000000F0FF1D
:100A30000000F07F0000E0FF0000F87FF0B5F94D06
:100A40000C091E092C402E402F468BB0A7437DD0A9
:100A5000B543FCD0002E7AD0002CFCD00D465D4072
:100A6000ED0F2543AC1BFF25AD0464190894C502A6
:100A7000440DC9022143500DDC0204430120C0078C
:100A800001430443D2020191200C110C00958C46C5
:100A9000010423468B430A9161460904E24D8A43CF
:100AA0000991010A7D4449198039097805464D4369
:100AB00001266D18F605751B6943C90C640B891C6A
:100AC0004C436418B5012C1B250C2E04B4434C4335
:100AD0004D43210C691889090591009DE90701D052
:100AE0000121C90704912C4601996708CD072F43BE
:100AF0004C08059DE10B4D432D0C29466646754378
:100B000002950D4645432E46029D7D1BB44100953E
:100B10000D465D4301942C0C2F040D465543AE4603
:100B20002D0C3D43029503947546049C2D04641BD3
:100B3000049406D2029C039D641C00267541039513
:100B4000029401AC70CC009F7D1B01E03EE162E1AC
:100B5000B44109040095079101940599A4086143E3
:100B6000090C0C464443650BE7040C466646744387
:100B7000A646640B3C43039502947446049DE4042A
:100B80002C1B049406D2029C039D641C0026754114
:100B90000395029401AC70CC009F7D1BB44101947D
:100BA0000C465C430095650FE7000C465443A6468F
:100BB000640F3C43039502947446049DE4002C1B8F
:100BC000049406D2029C039D641C00267541039583
:100BD000029401AC70CC009F7D1BB441AE09AF06FE
:100BE000049DC900AD092F43049DA406AD060495DC
:100BF000079D344369180791059DE10B4D432D0C6A
:100C000029466646754302950D4645432E46029D8C
:100C10007D1BB44100950D465D4301942C0C2F04BF
:100C20000D465543AE462D0C3D4302950394754643
:100C3000049C2D04641B049406D2029C039D641C36
:100C4000002675410395029401AC70CC009F7D1B7A
:100C5000B44101948C050694079C890A611800959B
:100C60000791019C0599A4086143090C0D46454371
:100C7000680BEF040D46644665436C0B3C43049FD0
:100C8000ED047D1BAC4602D20025641C6841009E29
:100C9000019D371B85410846584301950C46460F78
:100CA000C5005443600F28436546E4002C1B02D264
:100CB0000025401C6E41019D3F1AB5412846BD09E3
:100CC000800628438446A009BF064E020699A40662
:100CD00076180743079D002068410A990790194339
:100CE0000020099B00906046FF1913434041E20F2A
:100CF00064003A43A4460446D71A8C41A04203D963
:100D00000120009020463A46C70F941840416246A1
:100D1000D20F2243644664000494009CBE466400E3
:100D2000D71AA446044602978C417746002F01D17A
:100D3000A04204D96046401C8446029A2046C40F53
:100D4000A64694184041049A0546D20F22436446B1
:100D50006400D31A8D417146002901D1A84202D9FD
:100D600028461A46641C10430122002800D016436E
:100D700061020020079B891904465C410223002C74
:100D800002DB491813466441089DCE0A2D145D19F3
:100D90004B056705E10A2C050D1908993E43C90763
:100DA0006940002B08D0934006D30022761C5141A5
:100DB000002B01D1760876001C4A002D43DB15423A
:100DC00041D0AA433FD030460BB0F0BD06180D46C7
:100DD0004D41174C7642AC411AD395181C465C41E4
:100DE000134A6D42A24113D3012252054C00D44252
:100DF0000AD15C00D4420BD04B4002D59202114381
:100E0000E2E749004908DFE75940C90FC90718E080
:100E100000200849D8E7054801420DD10342F7D028
:100E2000F2E700000000FF07902C00000000F07FB8
:100E30000000E0FF0000F87F114859400143C01254
:100E400041400020C0E70123089A9B069A4205DC36
:100E5000032252078918C90FC907B5E705225207AF
:100E60008918074A1143D2125140ADE770B51546B3
:100E70001C4602460B4628462146FFF7DFFD70BDA3
:100E8000FFFFFF7F1F22030C02D10F22000402D0BC
:100E9000030E03D004E00020014670470002083A28
:100EA000030F01D10001121F830F01D18000921E98
:100EB000002801DB4000521E120551184205C012E5
:100EC000411810467047C10FC90700D040420122A7
:100ED00092071143D6E701218907D3E70121C9050C
:100EE0000123411842001B06D3185B0E0AD0C11023
:100EF0000722D206891840075242D14201D552003A
:100F000089187047090208D50146002A03D0C10F8D
:100F1000C9070020704710467047420202D00020E7
:100F200002497047072109050143F4E70000F87FF3
:100F3000F0B5FF252D04C609C209FF2704462E403F
:100F40000137CB093E4348402A402B400746002A40
:100F50006BD0002B69D0AA4267D0AB4265D0002885
:100F600000DA32460125ED0529432C43090220020F
:100F7000090AD21A4B0C7F24E31A434C000A7C4422
:100F8000E35C7D242404121914145B00A218884227
:100F900001D3521C00E0400049420C465C4324113E
:100FA0005C43DB016415E318040A5C43C502200DB1
:100FB0000C4644436419250A5D432303EC0C0D469B
:100FC000654300030019EB184C42A34201D35B18A0
:100FD000401CD4052018002B07D05B00C91804D38F
:100FE000401C002901D1400840003F2189048A4269
:100FF00009D3002A08DC1106090F04D00321490790
:101000004018C00FC007F0BD012241001206891828
:101010007F2252069142F6D205214907C84201D5E6
:101020009010F0BDFF20C005F0BD002F00DA324661
:101030001648AA4207D2AB4205D21902090E17D0B0
:10104000F80FC007F0BDFF2563002D06AB42F9D8AD
:101050004900A942F6D8AB4201D1A942F2D0A94237
:1010600001D1002101E061004908D0050843F0BD2D
:101070001102090EFBD0FF200243D005F0BD0A4645
:101080000146104654E70000362800000000C07FEB
:101090001F22030C02D10F2200041CD0030E01D129
:1010A0000002083A030F01D10001121F830F01D182
:1010B0008000921E002801DB4000521ED20551180C
:1010C000021251181922904004D3491C002801D162
:1010D0004908490008467047C10FC90700D040427F
:1010E000012292071143D3E701218907D0E70000CD
:1010F000FFB50C461E468FB003CA089009914F00F9
:101100007D0D00D16D1E002108460020C046032140
:10111000099A89050840002A03DA820080184008ED
:101120000840800D01280A9002DD0020C0430A908B
:10113000089807430DD0F048F04928184843071491
:10114000189800281DD07542291E1DDD0A984242BC
:101150001BE01898012802D00020302104E0002074
:10116000F24305E02154401CB042FBDB3046002234
:10117000189B002121540F998B600A60486013B0BE
:10118000F0BDBD1B6D1CDFE70A9A002900DA694239
:101190000BA800F05DFA0BAB07CB03AB07C30899B4
:1011A000099800F0C1FA6B4607C30146D4480918F4
:1011B000002D00910BDDD24903980A9A494240184C
:1011C000002303A90390684600F01EFD08E0039980
:1011D0000A9A0023081803A90390684600F0BEFC91
:1011E0006B4607C30004000C03D00020C043410835
:1011F00000E01046189A002A03D0002200921546FB
:101200001EE0751E05D400F0A1F9303262556D1E46
:10121000F9D501220843079602D000227F1C04E082
:101220002078302801D100227F1E002A069787D01F
:101230001EE0112D07DA00F089F9303262556D1C7D
:1012400002460A43F5D1084303D00098002819D07C
:101250000EE00021681E05E0235C625C63542254AA
:10126000401E491C8142F7DBA81B401E07950690D3
:10127000079A18990020A0540F98079B069A81603E
:101280000CC07CE711260020189059E7D21DF0B55C
:101290000D460446D10893B0C90003C90C900D91C6
:1012A00002F0B6F902460D98C00F01D02D2007E0DC
:1012B0002068810701D52B2002E04007C00F4001C4
:1012C000032A0F9001D0072A05DB03462946204652
:1012D00000F07AF90EE12078800601D5E76900E098
:1012E00006272846652D04D0662814D0672D69D1BD
:1012F0002DE00020112F009001DB112300E07B1C6A
:101300000CAA03A910A8FFF7F3FE11990026109864
:101310007D1C0E9142E001203B460CAAC0070B90B9
:101320000120009003A910A8FFF7E2FE119D12987A
:101330001099002600280E9501D1781C0D18781BF5
:1013400002D446427D1C761EE81B00903AE0012F35
:1013500000DA01270020112F009001DD112300E0A9
:101360003B460CAA03A910A8FFF7C2FE11993D46FF
:10137000109800260E91217809070BD40E99A942E6
:1013800000DA0D4603A9012D04DD4A19203AD27F67
:10139000302A06D0B84201DA011D04DA0121009199
:1013A0000FE06D1EEFE7002802DC86192D1A03E01E
:1013B000411CA94200DD0D46801B401C009001200D
:1013C000C0070B902078000705D40098A84202DBE4
:1013D0000020C043009069460020C8720B9801218C
:1013E00002AF0337C907884225D0022010902B2076
:1013F00011900B9800280BDA40420B902D20119091
:1014000006E00B9800F050FC30317F1E0B903970D5
:101410001099481E00291090F3DC0B980028F0D199
:1014200011987F1E38702088000501D5452000E006
:1014300065207F1E387001A8C01BC01D0B900F983F
:10144000002800D0012041190098C01709180B98F6
:101450000818A169081A401EA0612078C00602D4AD
:101460002046C046C0460F98002805D06268A16893
:101470009047206A401C20622078C00625D520466F
:10148000C046C04621E0002E07DB0E98B04204DDC6
:1014900003A86268805DA16802E06268A1683020EC
:1014A0009047206A761C401C20620098401E00284D
:1014B00000900AD100F046F8C06862680168405C9C
:1014C000A1689047206A401C206228466D1E0028B3
:1014D000D9DC07E062683878A1687F1C9047206AF1
:1014E000401C20620B99481E00290B90F2DC20461C
:1014F000C046C046032042E601FCFFFF104D00003D
:10150000E1DFFFFF01694A1C02610878704700B5FE
:101510008FB002910021059105490193794403910F
:10152000114604906846FEF717FF0FB000BD00009B
:10153000E5FFFFFF0CC908399A4202D2531C0B6029
:101540001070704700487047300000200B4670B59F
:10155000024689078008084319469D08141AA941C4
:1015600025090807054308092C194841250A0106E1
:101570000D43010A2C194141200C0D0428430D0C88
:1015800000194D41002140194D41C0086907084329
:10159000E908840F8D002543840024184D41241947
:1015A0006D41121BAB4107E00925ED432C11521987
:1015B00063410024401C61411C460A250026551B3E
:1015C000B441F1D270BD0000F8B51F4604460123B6
:1015D0000068DB02032601461840072A05DB0028C5
:1015E00001D017A506E017A504E0002801D016A534
:1015F00000E016A5102081432160A069C01E002FC5
:10160000A06101D0401EA0612046C046C046002F08
:1016100009D038466268A1689047206A401C206261
:10162000C01C206206E0206AFAE762682878A16898
:101630006D1C9047761EF8D22046C046C046F8BDC5
:101640004E414E006E616E00494E4600696E660066
:10165000F7B516468AB0334878446C4603467C3367
:10166000C06F5A689B680DC42E487844763003AC2E
:101670000DC80DC43720C001081837211B30FEF7F4
:1016800001FF05460C46803D1B3C02D5644201200B
:1016900000E000200027099010E0E0070CD00C20AB
:1016A00020497843794432464C3941186846012331
:1016B00000F054FA6B4607C364107F1C002CECD179
:1016C000184F7F442E3F16E0E80712D02001C019C2
:1016D0000EC80691089307920068F04201D198194C
:1016E00008903246012306A903A800F037FA03AB9D
:1016F00007C36D10641C002DE6D10998002806D0A0
:1017000032466946012303A800F07EFA05E0012372
:101710003246694603A800F021FA0A9B07C30DB0C0
:10172000F0BD00009C210000034640000A4610B5B1
:10173000400D0BD00121C9070F24A40200191C037E
:1017400064082143540D2143D20207E00021012007
:10175000F2E7D40F490021435200401E0029F8DA75
:10176000DB0FDB07184310BDFFB50D46144685B0EF
:101770004868516801F033FF00910190A868A168A2
:1017800001F02DFF02910390A868616801F027FF26
:10179000029A12188242029201D2012000E0002037
:1017A000019A0B18D2180028019202D08A4202D95D
:1017B00003E08A4201D2012000E0002000990818CD
:1017C00000906868A16801F00AFF029A121882422C
:1017D000029201D2012000E00020019A0B18D218D9
:1017E0000028019202D08A4202D903E08A4201D243
:1017F000012000E000200099081800902868216866
:1018000040004900400849084018FA49471814E0C8
:1018100001994000C90F08430090019802994000C7
:10182000C90F08430190029803994000C90F08436B
:101830000290039840007F1E039000980028E7DA8A
:101840000898002801D0EC4E00E00026B74201DAEB
:10185000012000E00020002804902AD0F71BF806A1
:10186000C00E15D0029B2021091A039A8B401A43FF
:101870000392029A019BC2408B401A430292019A42
:10188000009BC2408B4000991A430192C1400091D5
:101890007B110DD06F460320C11A03D500218200B1
:1018A000B95003E08A008100BA587A50401EF3D53F
:1018B000374603980299002800D001200143089878
:1018C0000291002808460CD0002800D00120019980
:1018D000019A490508430121D20AC902D2020192A4
:1018E00000E001210E9B0122D207012B02D0002B28
:1018F00003D013E0002807D120E0904204D89042A2
:101900000CD1019B0B4209D0019B5918019105D1C3
:101910000099491C009101D17F1C009200280DD034
:10192000102108460020C0460498002806D00F98D1
:10193000002803D0082108460020C04628682168F6
:10194000019B009A4840C10F0598C90739430EC052
:1019500009B0F0BDFFB587B0099A08980899536897
:101960009268406889689646002203931746944619
:10197000089A12685300099A5B08126852005208CC
:101980009A1A9E4BD4180A9A002A01D0352200E0F8
:10199000402206920022012315460492DB0705939C
:1019A00024E0002D05D175460346039E4D1BB3412F
:1019B00009D375466646039B491B049D9841059BC8
:1019C0007519AC465F4163463B4308D0059B049EB6
:1019D000DD0776082E435B080496059301E0521E4E
:1019E000641EC50FED0749184041521C069B9A42E0
:1019F000D7DB002D04D17546039A6B1A824101D2C0
:101A000003200CE0039A0B466B404240134303D083
:101A1000014303D0012002E0022000E000206146E3
:101A200001910021009702910A99002905D0614691
:101A300040020143704B019102E0800700230290B5
:101A40009C4201DA012000E0002007003AD01A1B76
:101A5000D006C00E15D0029D2021019C091AC54058
:101A60008C402543029C8C4000D001242543019CDE
:101A70000295009DC4408D4000992C430194C140C3
:101A8000009154111DD06D460221002202290CD173
:101A90000320001B07E0002804DB8600AE59002E5F
:101AA00000D00122401C0328F5DB081B02D588006A
:101AB0002A5004E08000285810438A00A850491E8C
:101AC000E3D51C460A98002802980CD0002800D0C4
:101AD00001200199019A490508430121D20AC9024E
:101AE000D202019200E00121109B0122D207012BBA
:101AF00002D0002B03D013E0002807D11FE0904252
:101B000004D890420CD1019B0B4209D0019B59187B
:101B1000019105D10099491C009101D1641C0092EA
:101B200000280CD0102108460020C046002F06D007
:101B30001198002803D0082108460020C0460898C4
:101B40000999019A009B006809684840C10F0798ED
:101B5000C907214382600AC00BB0F0BD00B585B053
:101B6000019300920A460146002302A8FFF7FCFDFC
:101B700002A807C805B000BDFFB50A461F4685B0DC
:101B80000799019301230091014602A8FFF7ECFD9C
:101B900002990398049ECA0F4900D20700920F22AF
:101BA000490892028C1A0021002800DB0C464500EF
:101BB00013486D08844214D3079A002A04DA441E9D
:101BC0000026104DF64302E004460D460E46102155
:101BD00008460020C046002F03D0042108460020FC
:101BE000C0462005E90A0843009908436905F20A3E
:101BF0001143ADE602C0FFFF013C0000FF3F0000C3
:101C0000FF070000FFFFFF7F00B585B00193009242
:101C10000A460146002302A8FFF79CFE02A807C857
:101C2000A8E7FFB50A461F4685B00799019301232F
:101C30000091014602A8FFF78DFE02990398049EC9
:101C4000CA0F4900D20700920F22490892028C1A4B
:101C50000021002800DB0C46450011486D08844235
:101C600014D3079A002A04DA441E00260D4DF643C9
:101C700002E004460D460E46102108460020C046EC
:101C8000002F03D0042108460020C0462005E90AA1
:101C90000843009908436905F20A114358E6000019
:101CA000FF070000FFFFFF7F01468008081A0209B6
:101CB0001018020A1018020C1018C008820012181E
:101CC0005200891A01E0401C0A390A29FBD27047E8
:101CD00000487047100000207546FFF7F9FFAE4638
:101CE000050069465346C008C000854618B020B5B7
:101CF000FEF760FA60BCB64600260027C0C5C0C526
:101D0000C0C5C0C5C0C5C0C5C0C5C0C5403D4908E7
:101D100049008D46704710B50446C046C04620466F
:101D2000FEF737FA10BD000082078B079A423FD1B9
:101D300070B5920F0AD0032402780B78401C491C1E
:101D4000002A33D09A4231D12042F5D1214EF401FC
:101D500004C808C9951B9543254018D19A420FD154
:101D600004C808C9951B9543254010D19A4207D154
:101D700004C808C9951B9543254008D19A42E7D06D
:101D800012BA1BBA01209A4200D2404270BD12BA68
:101D90001BBA2DBA18241000E0401900E140401A87
:101DA00005D12E00E64002D1083CF4D1D01A70BD16
:101DB00002780B78401C491C002A09D09A4207D1AE
:101DC00002780B78401C491C002A01D09A42EFD0BF
:101DD000D01A70470101010101491820ABBEFEE78E
:101DE000260002007047000070B5416818220B46BB
:101DF000D341062B1ED2026810201346C341042B88
:101E000019D2012004020C4B1D46443D2E68264386
:101E10002E6004051D6825431D60072424061D68E7
:101E2000A5430D431D60032109041C688C43144322
:101E30001C6070BDFEE7FEE770020040F0B588B0A0
:101E4000684A904200D0FEE70790012042020B68EA
:101E50001C461443944200D0B2E0C6024D682A46A4
:101E60003243B24200D0ACE0CC68042722463A4369
:101E7000042A00D0A6E0059706940C690C22274698
:101E8000D741042F00D39EE020228A5C022A00D38F
:101E90009AE0039404924C6A11222746D741082FF6
:101EA00000D392E08F6A14220297D741092F00D302
:101EB0008CE000944C4C276840223A432260040294
:101EC0004A4A97690194274397611768FF0704D12D
:101ED00001245460176827431760146802272743BA
:101EE000176000275468E40704D17C1CBF0A7D2FCB
:101EF0002746F7D3079A9468844394609268D20780
:101F000065D1079AD4683A4F3C401C43D460D368EB
:101F1000B3432B43D3600B7A5C1EA3419B02840224
:101F2000D568A543EB18D3604A7A002A019D00D1F9
:101F30001546079BDC682F4A14402C43DC60DC68A4
:101F4000059DAC43069D2C43DC609C683C409C6036
:101F50009C6814409C6003221203DC689443039A3B
:101F60001443DC60F022D443DA6822404D69154303
:101F7000DD600F2215021E69AE430B252D02751977
:101F80001D611D6995438E692E431E611D692540A3
:101F9000C96929431961D968049B002B1AD007230A
:101FA0005B049943009B1943079BD9601105DA68CC
:101FB0008A4302990A43DA600204D96811430CE0AB
:101FC000FEE7FEE7FEE7FEE7FEE7FEE7FEE70020AE
:101FD00008B0F0BD012212049143079AD16008B005
:101FE000F0BDC04600AC0140280200400CA80140F2
:101FF000FFFDFFFFFFFEFFFF1548016804220A43B3
:102000000260016801220A430260704710B500288F
:1020100006D004467D20C00000F004F8641EF9D10B
:1020200010BD000010B5044669480068694901F018
:10203000DBF9604301210906884200D30846411EAE
:1020400003484160002181600168C903FCD510BDCF
:1020500010E000E0B0B501680A4A114200D0FEE786
:10206000094B184644380468802525430560012043
:10207000C4071D6825431D601C6814400C431C6088
:10208000B0BDC046FFFFFFBF6C020040F0B581B09D
:102090000F4606464E4804684E4D2046294601F03C
:1020A000A3F97F2E0DDD4C498E4200DD32E04C4914
:1020B0008E4200DD37E0802E00D141E0012109028F
:1020C0003CE0711E3F2900D946E0C04679440979B9
:1020D00049008F4435354135414141354141414108
:1020E00041414135414141414141414141414141EC
:1020F00041414135414141414141414141414141DC
:1021000041414141414141414141414141414141BF
:102110004141413531498E420BDC0121CA029642D0
:102120000ED009030AE001214A02964208D0890232
:1021300004E001214A03964202D089038E420BD16A
:102140003968042906D27A68032A04D2BA68022AB6
:1021500003D3FEE7FEE7FEE7FEE7012E009001D184
:10216000002006E000223346521C5B08012BFBD105
:10217000D0B24200914080001AA212582848083874
:102180009047B0B2B968012903D125490A680243D2
:1021900002E023490A6882430A6076437A68724300
:1021A0000F46032373430E1F37689F43174337605F
:1021B000AC4205D3C822009B5A4300BF521EFCD13B
:1021C000486001208107174A116001B0F0BDC04688
:1021D0000000002040420F00FF070000FF1F00002A
:1021E000FF0100001D230000292300007B230000C5
:1021F0008723000093230000A1230000AF230000E9
:10220000BD230000CB230000D923000035230000AC
:1022100043230000512300005F2300006D230000D2
:10222000080D004080E200E0F0B582B0384A821824
:102230000623DA41042A06D20A68364BD418641EF3
:102240009C4201D2FEE7FEE74B68042B04D28C6867
:102250000194022C01D3FEE7FEE7CC680094022C27
:1022600000D3FEE72C4C256880262E432660002AEA
:102270004BD000260FE0046ABC4304627F431C4637
:102280007C4303257D43C768AF432743C760761C63
:102290001446F44039D00127B7401740F7D0FD432A
:1022A000032B0ED104682C40046044682C40446029
:1022B00084682C408460846A3C438462022BDDD1B4
:1022C0001DE0846A2C4084620468002B01D02C40FD
:1022D00000E03C430460019C002C02D084683C4335
:1022E00001E084682C408460009C002C02D044688B
:1022F0003C4301E044682C404460022BBED10C6991
:10230000012CB8D1046A3C43B7E7012002B0F0BD0C
:1023100000F4FFBF0100FFFF280200400268032312
:102320009A430A430260704702680C239A430A43A7
:102330000260704703221205036893430B43036056
:10234000704703229205036893430B430360704771
:1023500003221206036893430B4303607047032272
:102360009206036893430B430360704703221207EE
:10237000036893430B4303607047026830239A431A
:102380000A43026070470268C0239A430A4302600E
:10239000704703221202036893430B4303607047A4
:1023A00003229202036893430B43036070470322A6
:1023B0001203036893430B430360704703229203A5
:1023C000036893430B4303607047032212040368BE
:1023D00093430B43036070470322920403689343C3
:1023E0000B430360704780B5FFF706FE80BD000019
:1023F00010B50268042A01D303220260002905D423
:102400001F220A4001239340114A136000680029EB
:1024100005D403220B4693430F4A9A1803E00C227B
:102420000A400C4BD2188B07DB0E8007000E984039
:10243000FF249C401368A34303431360002905D481
:102440001F200140012088400449086010BDC0469B
:1024500080E100E014ED00E000E400E000E100E0D5
:10246000F0B581B00127BC02BA4DA86B4005284EDB
:1024700014D5AC637D208000009404460C34296898
:1024800021432960FFF7C2FD00F06AFF686820431E
:10249000009C6860B803316801433160A86B400755
:1024A0000CD50420A86328682043286000F070FF42
:1024B0006420FFF7ABFD686820436860A86BC00626
:1024C00023D51020A863F06B00070DD4306C0821D1
:1024D0000143316400F02CFF2868204301C52046E9
:1024E0001838FFF793FD0DE0F06B00070DD500F0F5
:1024F0001FFF7D208000FFF789FD00F019FF4436A3
:102500000824354628682043286001B0F0BDC04645
:10251000140C0040F0B585B001273E0400F07CFEAD
:102520000290444C6068C003434D02D419208501D9
:1025300004E0C83560680003400F854007200006AE
:102540003E490A6882430320039000061018086081
:102550003B4908680422009210430860E06839494A
:102560000140E160E06801963043E0602646083EA5
:1025700037602068049738432060206802210143B7
:1025800021603068C0070AD1049F0120FFF74AFD8F
:102590003068C00703D1781CAF420746F5D3049AD0
:1025A00032602069216891432160E168019A91437A
:1025B000E160234A1168009B9943116082B21E4F6B
:1025C0007A4321480088002529462B46FDF704FE62
:1025D0001E4E029A72432B46FDF716FE04461C4817
:1025E00000887843314600F0FFFE06462046FEF79D
:1025F00072FC04460F463046FEF76DFC02460B4661
:1026000020463946FEF7F7F9FEF72EF8FEF766FC8E
:10261000104A114BFEF712FA104B2A46FEF7DEF96C
:10262000039A93072A46FEF7D9F9FEF71DF805B07D
:10263000F0BDC04608AC0140B80B0000700200407D
:1026400018A801400000F0FF08FBFF1FFF0F00006B
:1026500092FAFF1FC3F5285C8FC2074000003E407E
:102660000548011F0968890704D50168890701D554
:10267000012101607047C0463CA80140F0B581B01F
:10268000344D2868012738432860286802263043E3
:10269000286005242046FFF7C5FC68683843686059
:1026A0002046FFF7BFFC68683043686001B0F0BDAA
:1026B00070B5284D6868012630436860286802219B
:1026C0000143296005242046FFF7ACFC286830430D
:1026D00028602046FFF7A6FC70BDC046F0B581B06B
:1026E000044600201B4F16E0786801210143796001
:1026F00005252846FFF796FC3868022630433860E7
:102700002846FFF78FFC7868304378600099481CB2
:102710006400072908D2009060B20028E4D5386828
:10272000012101433960E3E7386801242043386020
:1027300005252846FFF776FC386830433860284680
:10274000FFF770FCB86879683143796084432046AC
:1027500001B0F0BDD40C0040B0B586B02F48016A7E
:1027600055220A43AA218A4302620F210904024624
:10277000083A13688B4313601168012421431160E8
:102780000168A143016001680225A9430160016855
:1027900030220A4340218A4302607F2109040268F3
:1027A0008A432F21090451180160016808229143CE
:1027B000016001682143016001680906FCD51849E0
:1027C0000A682243AA430A600C380168294305229B
:1027D0009143016007210A020368934303600A04DE
:1027E000036893430360C90402688A43026000F0EF
:1027F00063FB00200590049003900295E002019095
:102800008C4801A9FFF710FD0648016804220A431D
:102810000B21C9431140016006B0B0BD1802004051
:1028200000100040000E0040F0B593B000F0A6F894
:102830000027049701252C04039403A8FFF7D4FA7A
:10284000129711971097280202900E9003260F9668
:102850004848403001900EA9FFF7E6FC202003A96C
:102860000D54FF20023008810697049703970797BD
:1028700008970997A8050D9070040C90A0200A9065
:102880003D4E30461438FFF7D9FA306820433060A7
:102890006804316801433160680231680143316086
:1028A000039703A8FFF7D6FB0797069505970497AC
:1028B000029C03942F48403803A9FFF7B5FC1095FC
:1028C0000F950E9704260EA93046FFF7DFFB0797FA
:1028D000069505970497039603A9264E3046FFF701
:1028E000A3FC10950F97022000900E9010200EA9C7
:1028F000FFF7CCFB0497039405970697079703A966
:102900003046FFF791FC10950F970E9740200EA9C7
:10291000FFF7BCFB0797069505970497AE02039651
:1029200003A90198FFF780FC10950F95009C0E9469
:102930000EA93046FFF7AAFB079706970597049460
:10294000029803900B48803003AD06462946FFF7F6
:102950006BFC0797069705970494802003903046F8
:102960002946FFF761FC039703A81E21FFF740FDEE
:1029700013B0F0BD400C004014AC0140F0B585B080
:1029800000270497012403940297019460030090A8
:10299000284EC03E6D4630462946FFF745FC049759
:1029A000039702970194A003009030462946FFF751
:1029B0003BFC0497039702970194082000901D4E5A
:1029C000803E30462946FFF72FFC04970397029775
:1029D0000194E002009030462946FFF725FC049759
:1029E0000397029401940094124E30462946FFF753
:1029F0001BFC049703970294019402200090304638
:102A00002946FFF711FC049703970297019460028F
:102A1000009030462946FFF707FC0497039702977A
:102A20000194A002009030462946FFF7FDFB05B057
:102A3000F0BDC046C00C004010B5FFF71FFE782067
:102A4000FFF74CFE4020FFF749FE01204402002022
:102A5000FFF744FE641EFAD1FFF72AFE10BD000006
:102A600070B5012045030A4E3068284330600A24BF
:102A70002046FFF7CBFA7068284370602046FFF7C6
:102A8000C5FA3068284330606420FFF7BFFA70BD94
:102A9000140C004070B5FFF7F1FD78242046FFF7D5
:102AA0001DFE00252846FFF719FEAE20FFF716FE93
:102AB000FFF7FEFDFFF7E2FD2046FFF70FFE284679
:102AC000FFF70CFED520FFF709FEFFF7F1FDFFF73A
:102AD000D5FD2046FFF702FE2846FFF7FFFDC12087
:102AE000FFF7FCFDFFF7E4FDFFF7C8FD2046FFF709
:102AF000F5FD2846FFF7F2FDA820FFF7EFFDFFF7F1
:102B0000D7FDFFF7BBFD2046FFF7E8FD2846FFF79E
:102B1000E5FD1F20FFF7E2FDFFF7CAFDFFF7AEFD61
:102B20002046FFF7DBFD2846FFF7D8FDAD20FFF775
:102B3000D5FDFFF7BDFDFFF7A1FD2046FFF7CEFD58
:102B40002846FFF7CBFD2846FFF7C8FDFFF7B0FD8D
:102B5000FFF794FD2046FFF7C1FD2846FFF7BEFDB5
:102B60002020FFF7BBFDFFF7A3FDFFF787FD204601
:102B7000FFF7B4FD2846FFF7B1FD2846FFF7AEFD8D
:102B8000FFF796FDFFF77AFD2046FFF7A7FD2846E1
:102B9000FFF7A4FDD320FFF7A1FDFFF789FDFFF7A5
:102BA0006DFD2046FFF79AFD2846FFF797FD284662
:102BB000FFF794FDFFF77CFDFFF760FD2046FFF770
:102BC0008DFD2846FFF78AFD40263046FFF786FD3B
:102BD000FFF76EFDFFF752FD2046FFF77FFD284609
:102BE000FFF77CFD8D20FFF779FDFFF761FDFFF713
:102BF00045FD2046FFF772FD2846FFF76FFD1420C4
:102C0000FFF76CFDFFF754FDFFF738FD2046FFF797
:102C100065FD2846FFF762FDA120FFF75FFDFFF786
:102C200047FDFFF72BFD2046FFF758FD2846FFF72D
:102C300055FDC020FFF752FDFFF73AFDFFF71EFDDF
:102C40002046FFF74BFD2846FFF748FDDA20FFF747
:102C500045FDFFF72DFDFFF711FD2046FFF73EFD77
:102C60002846FFF73BFD1220FFF738FDFFF720FD58
:102C7000FFF704FD2046FFF731FD2846FFF72EFD44
:102C80008120FFF72BFDFFF713FDFFF7F7FC204630
:102C9000FFF724FD2846FFF721FD5320FFF71EFD17
:102CA000FFF706FDFFF7EAFC2046FFF717FD284671
:102CB000FFF714FDD920FFF711FDFFF7F9FCFFF72F
:102CC000DDFC2046FFF70AFD2846FFF707FD22201E
:102CD000FFF704FDFFF7ECFCFFF7D0FC2046FFF701
:102CE000FDFC2846FFF7FAFCDB20FFF7F7FCFFF7B7
:102CF000DFFCFFF7C3FC2046FFF7F0FC2846FFF798
:102D0000EDFC2846FFF7EAFCFFF7D2FCFFF7B6FC24
:102D10002046FFF7E3FC2846FFF7E0FCA420FFF77E
:102D2000DDFCFFF7C5FCFFF7A9FC2046FFF7D6FC4A
:102D30002846FFF7D3FCA620FFF7D0FCFFF7B8FC2E
:102D4000FFF79CFC2046FFF7C9FC3046FFF7C6FCA6
:102D5000012044020020FFF7C1FC641EFAD1FFF7F6
:102D6000A7FCFFF78BFC7820FFF7B8FC0020FFF7EB
:102D7000B5FCAF20FFF7B2FCFFF79AFC70BDF0B5D1
:102D800081B00E460746FFF779FC78242046FFF70E
:102D9000A5FC00252846FFF7A1FC2120FFF79EFC9B
:102DA000FFF786FCFFF76AFC2046FFF797FC2846F2
:102DB000FFF794FC38467F277F2800D33846FFF77B
:102DC0008DFCFFF775FCFFF759FC2046FFF786FCEA
:102DD0002846FFF783FC3846FFF780FCFFF768FCC6
:102DE000FFF74CFC2046FFF779FC2846FFF776FCFE
:102DF0002220FFF773FCFFF75BFCFFF73FFC204648
:102E0000FFF76CFC2846FFF769FC1F2E00D31F2636
:102E1000F008FFF763FCFFF74BFCFFF72FFC2046A1
:102E2000FFF75CFC2846FFF759FC0320FFF756FC30
:102E3000FFF73EFC01B0F0BDF0B581B00278002A8A
:102E400021D00D4604E000984278401C002A1AD098
:102E50000090002DF7D011010C4841180C480F18B4
:102E6000072151430B484618E03E2C4606E0007807
:102E700000F012F8761C7F1C641EE4D0072D30464B
:102E8000F5D03846F3E701B0F0BDC046253B000061
:102E900000FEFFFF8C38000010B50446FFF7EEFB84
:102EA0007820FFF71BFC4020FFF718FC2046FFF7B7
:102EB00015FCFFF7FDFB10BDB0B5424D2C460C3C98
:102EC000206807210140481E06281DD87D210902DF
:102ED000784400794000874403061721285D1200DA
:102EE0004048016856E02868800721D42846083801
:102EF00000680003010F022924D03C4823E0206829
:102F0000000718D5314945E0083D28680003000F47
:102F1000022812D03549012812D03BE0E86C800B22
:102F20000C2101402BA0415834E02948016831E0D0
:102F30002C4800680AE024492CE02B49012829D1BB
:102F40002B4927E02848012900D12948296849064A
:102F5000490FC0467944097949008F441203070993
:102F6000050D0F0B40080CE00C2108E0800808E07C
:102F7000C00806E0400904E0000902E0182100F062
:102F800033FA29684902490E491C41432868000761
:102F9000C00F814017480160216849054A0F01218F
:102FA0007A44127952009744030303030906080484
:102FB000B0BD042102E0022100E003210268CA4002
:102FC0000260B0BD18020040006CDC020087930371
:102FD0000800002000093D0040420F0020A107002A
:102FE00090D003000400002000366E0100127A0029
:102FF0000024F40000000020F0B583B034480246FD
:10300000143A002111600446203C05225306236037
:10301000031F1D688026019635431D600F239B0406
:103020002C4EB5681D43B5600346083B196011027C
:103030001A680A431A600123D90622680A432260EB
:10304000AA21C16024490B600E224A602349032251
:1030500002920A60224E316A7F270A0C8DB25540D7
:10306000204C4022A54201D0114600E039400546DF
:10307000183D2960716A0D0C8EB26E40A64226463C
:1030800001D0114600E03940C163154909680A0CB6
:103090008DB25540B54201D0019A00E0CAB2014656
:1030A0000C390A600299C9010A4C22680A4322605D
:1030B000016810221143016099020B4B1C680C43FC
:1030C0001C60016891430160FFF7F6FE03B0F0BD9C
:1030D0002C020040C40C004000A801400400004045
:1030E00020FBFF1FFFFF00003C040040F0B585B04F
:1030F0000390694A106844490840032109064018B2
:103100001060664908680127384308607804644AFB
:10311000D1680143D1601646083E376010683843D5
:103120001060106802210191084310603068C007E8
:1031300012D10024049402E0641C01280CD0012563
:103140002846FEF763FF032C00D8049D3068C007B3
:103150003846F1D12846EFE701253560504B186914
:103160000290E8431968014019606904DA688A43EB
:10317000DA604A4A11680140116047490868224AEA
:1031800010400860214803990140D8680391084322
:10319000D86035601868284318601868019908439A
:1031A00018603068C00712D10024049402E0641C47
:1031B00001290CD02846FEF729FF032C284600D809
:1031C00004983168C9073946F1D10146EFE7356007
:1031D000334B18691968A9431960D968039A914358
:1031E000D96080B2514A42430948008800242146F0
:1031F0002346FCF7F1FF029A93B2064A5A4323464C
:10320000FDF702F805B0F0BDFFFFFFF8FFFF0F006C
:1032100008FBFF1FFF0F0000F0B581B0072000067C
:103220001D490A68824303200006101808601B49E4
:1032300008680127384308607904194CE068009158
:103240000843E0602546083D2F6020683843206031
:1032500020680221014321602868C0070AD10026A6
:103260000120FEF7D3FE2868C00703D1701C042E8E
:103270000646F5D32F602069F94322680A40226090
:10328000E268009B9A43E260044B1A680A401A60A5
:1032900080B201B0F0BDC0467002004018A80140E5
:1032A00008AC014088B0FFF79EF8FFF755FAFFF72A
:1032B000BBFAFFF7D5FBFFF7EDFB00F083F8FDF756
:1032C0000DFE0090019105AE0A273046394613A243
:1032D000FDF722F8FFF7B0FB0F2420462146FFF749
:1032E0004EFD072530462946FFF7A6FDFFF712F9E8
:1032F000FDF7F4FD0090019102AE3046394609A277
:10330000FDF70AF819212046FFF739FD3046294616
:10331000FFF792FD0548FEF779FECEE7252E3366CE
:1033200020560000252E3266202A4300B80B0000EC
:10333000F0B581B0FF2592350120C602204F3868D4
:10334000304338607D242046FEF76CFE78683043B9
:1033500078602046FEF766FE6D1EF0D101B0F0BD2C
:10336000F0B581B00120C5020B26154F38682843FF
:1033700038607D242046FEF755FE78682843786043
:103380002046FEF74FFE761EF0D101B0F0BDC046DC
:10339000F0B581B00120C5020326094F38682843E3
:1033A00038607D242046FEF73DFE7868284378602B
:1033B0002046FEF737FE761EF0D101B0F0BDC046C4
:1033C000540C004080B501204002FFF78FFEFDF74E
:1033D0008BFE034900F050F90249FDF7A9FD80BDBD
:1033E00088B3F23F00007A4443088B421AD300228C
:1033F00003098B4279D3030A8B425ED3030B8B42C2
:1034000042D3030C8B4227D30902FF2212BA030CCA
:103410008B4202D31212090203D0030B8B4233D327
:103420001AE0D3E0411A8041401C704703460B4329
:1034300071D443088B42F5D3002203098B4254D345
:10344000030A8B4239D3030B8B421DD3030C8B42EF
:1034500002D394466EE0090AC30B8B4201D3CB031F
:10346000C01A5241830B8B4201D38B03C01A5241C5
:10347000430B8B4201D34B03C01A5241030B8B42C7
:1034800001D30B03C01A5241C30A8B4201D3CB02B2
:10349000C01A5241830A8B4201D38B02C01A524197
:1034A000430A8B4201D34B02C01A5241030A8B429A
:1034B00001D30B02C01A5241CDD2C3098B4201D3B2
:1034C000CB01C01A524183098B4201D38B01C01A30
:1034D000524143098B4201D34B01C01A52410309A7
:1034E0008B4201D30B01C01A5241C3088B4201D356
:1034F000CB00C01A524183088B4201D38B00C01A03
:10350000524143088B4201D34B00C01A5241411A29
:10351000524110007047CA0F00D04942031000D337
:103520004042534000229C4603098B422DD3030A9C
:103530008B4212D38901FC2212BA030A8B420CD3AC
:10354000890192118B4208D3890192118B4204D3D5
:10355000890137D0921100E08909C3098B4201D358
:10356000CB01C01A524183098B4201D38B01C01A8F
:10357000524143098B4201D34B01C01A5241030906
:103580008B4201D30B01C01A5241C3088B4201D3B5
:10359000CB00C01A524183088B4201D38B00C01A62
:1035A0005241D9D243088B4201D34B00C01A524139
:1035B000411A00D201465241104663465B1000D3C7
:1035C0004042704763465B1000D3404201B5002182
:1035D000004201D0C9430846C046C04602BDF8B506
:1035E000040C8BB2264682B25E43104658430D0C43
:1035F000370C360400218019164679416E43370C8A
:1036000036048019264679416E438919F8BD0000B9
:103610004900CA020243100000D004204A0D01D024
:1036200001221043044A490D914201D1022108436D
:10363000012800D105207047FF07000030380A2814
:1036400001D20120704700207047000010B500290A
:103650000AD00878002807D005487844FEF764FBB4
:10366000002801D0002010BD0248784410BD0000A1
:10367000DE0A0000D60A000070B5420064414B002B
:103680005C41120E39D01B0E38D0FF2A3CD0FF2BE4
:103690003AD0D2187F3A40024902400A490A4518F6
:1036A000ED0106004E43000A090A48430104731A5B
:1036B0004019190C4318990F04D05B0801214907E0
:1036C0005B1A521CD80904D3401CF50301D19D0696
:1036D00007D0FF2A08D2D50506D0E40720434019B9
:1036E00070BD0125A843F4E7002A01DCE00770BDA6
:1036F0002402FF202043C00570BD1B0EFF2A03D00B
:10370000FF2B01D0E00770BDFF2636064500B5420D
:1037100006D84D00B54203D8D218FF2A00D0E7E7FB
:10372000004870BD0000C07F03B40248784484465E
:1037300003BC60475DDBFFFF80807F7E7D7C7B7A02
:103740007978777676757473727171706F6E6E6D4D
:103750006C6C6B6A6A6968686766666564646363F3
:1037600062616160605F5F5E5E5D5D5C5C5B5B5A79
:103770005A595958585757565655555554545353E6
:1037800052525251515050504F4F4F4E4E4D4D4D41
:103790004C4C4C4B4B4B4A4A4A494949484848478C
:1037A00047474746464645454544444444434343CA
:1037B00043424242424141418182838485868788D7
:1037C000898B8C8D8E8F919293959697999A9C9DCB
:1037D0009FA0A2A3A5A7A8AAACAEB0B2B3B5B7B933
:1037E000BCBEC0C2C5C7C9CCCED1D4D7D9DCDFE2FC
:1037F000E6E9ECF0F3F7FAFE02400000000000A05A
:103800000000000005400000000000C800000000AB
:103810000C4000000000409C000000001940000027
:103820000020BCBE0000000034400000BFC91B8E59
:1038300000000004B5400000504BCFD06607E2CF37
:10384000010000006C4100003E8251AADFEEA73467
:1038500001000000D9420000DCB5A0E23A301F9719
:10386000FFFFFFFFB4450000FD25A0C8E9A3C14F3D
:10387000FFFFFFFFFF3F000000000080000000008E
:10388000FF3F00000000008000000000000000007A
:1038900000000000004F00000000000700070000CB
:1038A00000147F147F140000242A7F2A12000023B2
:1038B00013086462000036495522500000000503D9
:1038C00000000000001C22410000000041221C00FA
:1038D000000014083E0814000008083E0808000014
:1038E00000503000000000080808080800000060D0
:1038F0006000000000201008040200003E5149450D
:103900003E000000427F40000000426151494600F5
:10391000002141454B3100001814127F1000002790
:103920004545453900003C4A4949300000017109CC
:103930000503000036494949360000064949291E59
:10394000000000363600000000005636000000007F
:103950000814224100000014141414140000004143
:103960002214080000020151090600003249794181
:103970003E00007E1111117E00007F49494936004A
:10398000003E4141412200007F4141221C00007F56
:103990004949494100007F0909090100003E4149A8
:1039A000497A00007F0808087F000000417F41003D
:1039B00000002040413F0100007F08142241000028
:1039C0007F4040404000007F020C027F00007F04E7
:1039D00008107F00003E4141413E00007F09090977
:1039E0000600003E4151215E00007F091929460072
:1039F000004649494931000001017F010100003FB3
:103A00004040403F00001F2040201F00003F403842
:103A1000403F0000631408146300000708700807A3
:103A2000000061514945430000007F414100000012
:103A3000020408102000000041417F000000040241
:103A40000102040000404040404000000001020428
:103A5000000000205454547800007F48444438004B
:103A60000038444444200000384444487F00003873
:103A7000545454180000087E09010200000C5252F0
:103A8000523E00007F08040478000000447D40009E
:103A900000002040443D0000007F1028440000004A
:103AA00000417F400000007C0418047800007C087E
:103AB0000404780000384444443800007C14141492
:103AC000080000081414187C00007C080404080096
:103AD0000048545454200000043F44402000003C5F
:103AE0004040207C00001C2040201C00003C403056
:103AF000403C0000442810284400000C5050503C2A
:103B000000004464544C44000000083641000000AA
:103B100000007F000000000041360800000010088F
:103B20000810080000000000000000000000000075
:103B3000000000000000000008080808080808004D
:103B4000001818000000486C24120000000000005B
:103B500000000000000000002424247F1212127FC5
:103B600012121200000000081C2A2A0A0C18282829
:103B70002A2A1C080800000022251515152A585469
:103B800054542200000000000C1212120A7625295B
:103B900011916E0000000606040300000000000002
:103BA0000000000000004020101008080808080865
:103BB000101020400000020408081010101010100F
:103BC00008080402000000000008086B1C1C6B08B9
:103BD000080000000000000000080808087F08082E
:103BE00008080000000000000000000000000000C5
:103BF00000060604030000000000000000FE0000B4
:103C000000000000000000000000000000000000B4
:103C10000006060000000080404020201010080828
:103C200004040202000000001824424242424242C0
:103C30004224180000000000080E080808080808C0
:103C400008083E00000000003C42424220201008CC
:103C500004427E00000000003C4242201820404008
:103C600042221C0000000000203028242422227E52
:103C700020207800000000007E0202021A26404048
:103C800042221C0000000000382402021A26424290
:103C900042241800000000007E22221010080808AC
:103CA00008080800000000003C4242422418244258
:103CB00042423C0000000000182442424264584046
:103CC00040241C0000000000000000181800000044
:103CD00000181800000000000000000008000000AC
:103CE0000000080804000000402010080402040836
:103CF00010204000000000000000007F0000007F56
:103D00000000000000000000020408102040201005
:103D100008040200000000003C424246402010100F
:103D200000181800000000001C225A555555552D4A
:103D300042221C00000000000808181414243C2231
:103D40004242E700000000001F2222221E224242BF
:103D500042221F00000000007C42420101010101DB
:103D600042221C00000000001F2242424242424206
:103D700042221F00000000003F4212121E121202D7
:103D800042423F00000000003F4212121E12120287
:103D900002020700000000003C2222010101712103
:103DA00022221C0000000000E7424242427E4242C2
:103DB0004242E700000000003E0808080808080822
:103DC00008083E00000000007C10101010101010B9
:103DD000101010110F0000007722120A0E0A1212A2
:103DE0002222770000000000070202020202020203
:103DF00002427F000000000077363636362A2A2A33
:103E00002A2A6B0000000000E346464A4A525252FA
:103E100062624700000000001C22414141414141D3
:103E200041221C00000000003F424242423E02028A
:103E300002020700000000001C2241414141414DA7
:103E400053321C60000000003F4242423E121222E8
:103E50002242C700000000007C42420204182040B9
:103E600042423E00000000007F4908080808080898
:103E700008081C0000000000E74242424242424261
:103E800042423C0000000000E74242222424141475
:103E900018080800000000006B494949495555368B
:103EA0002222220000000000E742242418181824CF
:103EB0002442E700000000007722221414080808BA
:103EC00008081C00000000007E21201010080404D7
:103ED00042423F000000780808080808080808085F
:103EE00008080878000000020204040808081010FE
:103EF0002020204040001E10101010101010101034
:103F00001010101E000038440000000000000000E7
:103F100000000000000000000000000000000000A1
:103F200000000000FF000608000000000000000084
:103F30000000000000000000000000003C42784447
:103F40004242FC0000000000030202021A26424224
:103F500042261A000000000000000000384402025F
:103F60000244380000000000604040407844424273
:103F70004264D80000000000000000003C427E02C5
:103F800002423C0000000000F08808087E08080893
:103F900008083E0000000000000000007C22221CF7
:103FA000023C42423C000000030202023A46424206
:103FB0004242E700000000000C0C00000E08080858
:103FC00008083E00000000003030000038202020AB
:103FD000202020221E0000000302020272120A1694
:103FE00012227700000000000E08080808080808E0
:103FF00008083E0000000000000000007F9292923E
:104000009292B70000000000000000003B464242D0
:104010004242E70000000000000000003C42424233
:1040200042423C0000000000000000001B2642420B
:1040300042221E02070000000000000078444242B5
:1040400042447840E000000000000000774C040487
:1040500004041F0000000000000000007C42023C3D
:1040600040423E0000000000000008083E0808082A
:1040700008083000000000000000000063424242D7
:104080004262DC000000000000000000E74224243F
:10409000140808000000000000000000EB4949552A
:1040A00055222200000000000000000076241818AD
:1040B00018246E000000000000000000E7422424E5
:1040C0001418080807000000000000007E221008F5
:1040D00008447E000000C020202020201020202046
:1040E000202020C000101010101010101010101000
:1040F000101010101000060808080808100808081A
:1041000008080806000C32C2000000000000000091
:1041100000000000000000005841000000000020E6
:10412000100000001C010000684100001000002089
:10413000601000003C0100001C0000004300000073
:10414000F8FFFFFF0C0000000E0000000F00000051
:104150002E0000000000000000127A0000127A0019
:084160000080000000000000D7
:04000005000000C136
:00000001FF
